{
  "contractName": "Marketplace",
  "abi": [
    {
      "constant": true,
      "inputs": [
        {
          "name": "",
          "type": "address"
        }
      ],
      "name": "storeOwners",
      "outputs": [
        {
          "name": "",
          "type": "bool"
        }
      ],
      "payable": false,
      "stateMutability": "view",
      "type": "function",
      "signature": "0x057cc2a1"
    },
    {
      "constant": true,
      "inputs": [
        {
          "name": "",
          "type": "uint256"
        }
      ],
      "name": "storeOwnersList",
      "outputs": [
        {
          "name": "",
          "type": "address"
        }
      ],
      "payable": false,
      "stateMutability": "view",
      "type": "function",
      "signature": "0x240c8b77"
    },
    {
      "constant": true,
      "inputs": [
        {
          "name": "",
          "type": "address"
        }
      ],
      "name": "admins",
      "outputs": [
        {
          "name": "",
          "type": "bool"
        }
      ],
      "payable": false,
      "stateMutability": "view",
      "type": "function",
      "signature": "0x429b62e5"
    },
    {
      "constant": true,
      "inputs": [
        {
          "name": "",
          "type": "address"
        },
        {
          "name": "",
          "type": "uint256"
        }
      ],
      "name": "storeAddressesByOwner",
      "outputs": [
        {
          "name": "",
          "type": "address"
        }
      ],
      "payable": false,
      "stateMutability": "view",
      "type": "function",
      "signature": "0x74d9037b"
    },
    {
      "constant": true,
      "inputs": [
        {
          "name": "",
          "type": "uint256"
        }
      ],
      "name": "adminsList",
      "outputs": [
        {
          "name": "",
          "type": "address"
        }
      ],
      "payable": false,
      "stateMutability": "view",
      "type": "function",
      "signature": "0xa4705294"
    },
    {
      "inputs": [],
      "payable": false,
      "stateMutability": "nonpayable",
      "type": "constructor",
      "signature": "constructor"
    },
    {
      "anonymous": false,
      "inputs": [
        {
          "indexed": true,
          "name": "_admin",
          "type": "address"
        }
      ],
      "name": "LogAdminAdded",
      "type": "event",
      "signature": "0x873b6546df550db4e197c19f621af58777f109107ed897212d3ab52d5a9f2ede"
    },
    {
      "anonymous": false,
      "inputs": [
        {
          "indexed": true,
          "name": "_admin",
          "type": "address"
        }
      ],
      "name": "logAdminDeleted",
      "type": "event",
      "signature": "0x3667fe90acda6c7b100a93eaf5e89f57121c81356b5b28cb9519791f9e4c0190"
    },
    {
      "anonymous": false,
      "inputs": [
        {
          "indexed": true,
          "name": "_storeOwner",
          "type": "address"
        }
      ],
      "name": "LogStoreOwnerAdded",
      "type": "event",
      "signature": "0x9b6906422b19475ec1131684c08d1c6dd03361fc4c734e83a6ecd44acf0fc596"
    },
    {
      "anonymous": false,
      "inputs": [
        {
          "indexed": true,
          "name": "_storeOwner",
          "type": "address"
        }
      ],
      "name": "LogStoreOwnerDeleted",
      "type": "event",
      "signature": "0x8ab0f29f24d118975d6c3ca64cb8189d89957d9af42b5ded53f95044e18f8dd5"
    },
    {
      "anonymous": false,
      "inputs": [
        {
          "indexed": false,
          "name": "owner",
          "type": "address"
        },
        {
          "indexed": false,
          "name": "store",
          "type": "address"
        }
      ],
      "name": "LogNewStoreCreated",
      "type": "event",
      "signature": "0x41b3fc7756c31368b828b3c0d5a0e45810b7f60f262f3936f6bb536dca7b2d38"
    },
    {
      "constant": false,
      "inputs": [
        {
          "name": "_newAdmin",
          "type": "address"
        }
      ],
      "name": "addAdmin",
      "outputs": [],
      "payable": false,
      "stateMutability": "nonpayable",
      "type": "function",
      "signature": "0x70480275"
    },
    {
      "constant": false,
      "inputs": [
        {
          "name": "_newStoreOwner",
          "type": "address"
        }
      ],
      "name": "addStoreOwner",
      "outputs": [],
      "payable": false,
      "stateMutability": "nonpayable",
      "type": "function",
      "signature": "0x9adeb5f1"
    },
    {
      "constant": false,
      "inputs": [
        {
          "name": "name",
          "type": "string"
        },
        {
          "name": "description",
          "type": "string"
        }
      ],
      "name": "createNewStore",
      "outputs": [],
      "payable": false,
      "stateMutability": "nonpayable",
      "type": "function",
      "signature": "0x0a25cced"
    },
    {
      "constant": true,
      "inputs": [],
      "name": "getStoreAddressesByOwner",
      "outputs": [
        {
          "name": "",
          "type": "address[]"
        }
      ],
      "payable": false,
      "stateMutability": "view",
      "type": "function",
      "signature": "0xb9e17a73"
    },
    {
      "constant": true,
      "inputs": [],
      "name": "getUserRole",
      "outputs": [
        {
          "name": "",
          "type": "string"
        }
      ],
      "payable": false,
      "stateMutability": "view",
      "type": "function",
      "signature": "0xbf04a10d"
    },
    {
      "constant": true,
      "inputs": [],
      "name": "getAdmins",
      "outputs": [
        {
          "name": "",
          "type": "address[]"
        }
      ],
      "payable": false,
      "stateMutability": "view",
      "type": "function",
      "signature": "0x31ae450b"
    },
    {
      "constant": true,
      "inputs": [],
      "name": "getStoreOwners",
      "outputs": [
        {
          "name": "",
          "type": "address[]"
        }
      ],
      "payable": false,
      "stateMutability": "view",
      "type": "function",
      "signature": "0x91f4245a"
    }
  ],
  "bytecode": "0x608060405234801561001057600080fd5b506001600260003373ffffffffffffffffffffffffffffffffffffffff1673ffffffffffffffffffffffffffffffffffffffff16815260200190815260200160002060006101000a81548160ff02191690831515021790555060003390806001815401808255809150509060018203906000526020600020016000909192909190916101000a81548173ffffffffffffffffffffffffffffffffffffffff021916908373ffffffffffffffffffffffffffffffffffffffff16021790555050612939806100de6000396000f3fe6080604052600436106100ba576000357c0100000000000000000000000000000000000000000000000000000000900463ffffffff168063057cc2a1146100bf5780630a25cced14610128578063240c8b771461028757806331ae450b14610302578063429b62e51461036e57806370480275146103d757806374d9037b1461042857806391f4245a146104c35780639adeb5f11461052f578063a470529414610580578063b9e17a73146105fb578063bf04a10d14610667575b600080fd5b3480156100cb57600080fd5b5061010e600480360360208110156100e257600080fd5b81019080803573ffffffffffffffffffffffffffffffffffffffff1690602001909291905050506106f7565b604051808215151515815260200191505060405180910390f35b34801561013457600080fd5b506102856004803603604081101561014b57600080fd5b810190808035906020019064010000000081111561016857600080fd5b82018360208201111561017a57600080fd5b8035906020019184600183028401116401000000008311171561019c57600080fd5b91908080601f016020809104026020016040519081016040528093929190818152602001838380828437600081840152601f19601f820116905080830192505050505050509192919290803590602001906401000000008111156101ff57600080fd5b82018360208201111561021157600080fd5b8035906020019184600183028401116401000000008311171561023357600080fd5b91908080601f016020809104026020016040519081016040528093929190818152602001838380828437600081840152601f19601f820116905080830192505050505050509192919290505050610717565b005b34801561029357600080fd5b506102c0600480360360208110156102aa57600080fd5b8101908080359060200190929190505050610a79565b604051808273ffffffffffffffffffffffffffffffffffffffff1673ffffffffffffffffffffffffffffffffffffffff16815260200191505060405180910390f35b34801561030e57600080fd5b50610317610ab7565b6040518080602001828103825283818151815260200191508051906020019060200280838360005b8381101561035a57808201518184015260208101905061033f565b505050509050019250505060405180910390f35b34801561037a57600080fd5b506103bd6004803603602081101561039157600080fd5b81019080803573ffffffffffffffffffffffffffffffffffffffff169060200190929190505050610b45565b604051808215151515815260200191505060405180910390f35b3480156103e357600080fd5b50610426600480360360208110156103fa57600080fd5b81019080803573ffffffffffffffffffffffffffffffffffffffff169060200190929190505050610b65565b005b34801561043457600080fd5b506104816004803603604081101561044b57600080fd5b81019080803573ffffffffffffffffffffffffffffffffffffffff16906020019092919080359060200190929190505050610d52565b604051808273ffffffffffffffffffffffffffffffffffffffff1673ffffffffffffffffffffffffffffffffffffffff16815260200191505060405180910390f35b3480156104cf57600080fd5b506104d8610d9f565b6040518080602001828103825283818151815260200191508051906020019060200280838360005b8381101561051b578082015181840152602081019050610500565b505050509050019250505060405180910390f35b34801561053b57600080fd5b5061057e6004803603602081101561055257600080fd5b81019080803573ffffffffffffffffffffffffffffffffffffffff169060200190929190505050610e2d565b005b34801561058c57600080fd5b506105b9600480360360208110156105a357600080fd5b810190808035906020019092919050505061101a565b604051808273ffffffffffffffffffffffffffffffffffffffff1673ffffffffffffffffffffffffffffffffffffffff16815260200191505060405180910390f35b34801561060757600080fd5b50610610611058565b6040518080602001828103825283818151815260200191508051906020019060200280838360005b83811015610653578082015181840152602081019050610638565b505050509050019250505060405180910390f35b34801561067357600080fd5b5061067c611123565b6040518080602001828103825283818151815260200191508051906020019080838360005b838110156106bc5780820151818401526020810190506106a1565b50505050905090810190601f1680156106e95780820380516001836020036101000a031916815260200191505b509250505060405180910390f35b60036020528060005260406000206000915054906101000a900460ff1681565b600360003373ffffffffffffffffffffffffffffffffffffffff1673ffffffffffffffffffffffffffffffffffffffff16815260200190815260200160002060009054906101000a900460ff168015156107ff576040517f08c379a000000000000000000000000000000000000000000000000000000000815260040180806020018281038252602f8152602001807f546869732066756e6374696f6e206973206f6e6c7920617661696c61626c652081526020017f746f2073746f7265206f776e657273000000000000000000000000000000000081525060400191505060405180910390fd5b600033848461080c61128d565b808473ffffffffffffffffffffffffffffffffffffffff1673ffffffffffffffffffffffffffffffffffffffff1681526020018060200180602001838103835285818151815260200191508051906020019080838360005b8381101561087f578082015181840152602081019050610864565b50505050905090810190601f1680156108ac5780820380516001836020036101000a031916815260200191505b50838103825284818151815260200191508051906020019080838360005b838110156108e55780820151818401526020810190506108ca565b50505050905090810190601f1680156109125780820380516001836020036101000a031916815260200191505b5095505050505050604051809103906000f080158015610936573d6000803e3d6000fd5b509050600460003373ffffffffffffffffffffffffffffffffffffffff1673ffffffffffffffffffffffffffffffffffffffff1681526020019081526020016000208190806001815401808255809150509060018203906000526020600020016000909192909190916101000a81548173ffffffffffffffffffffffffffffffffffffffff021916908373ffffffffffffffffffffffffffffffffffffffff160217905550507f41b3fc7756c31368b828b3c0d5a0e45810b7f60f262f3936f6bb536dca7b2d383382604051808373ffffffffffffffffffffffffffffffffffffffff1673ffffffffffffffffffffffffffffffffffffffff1681526020018273ffffffffffffffffffffffffffffffffffffffff1673ffffffffffffffffffffffffffffffffffffffff1681526020019250505060405180910390a150505050565b600181815481101515610a8857fe5b906000526020600020016000915054906101000a900473ffffffffffffffffffffffffffffffffffffffff1681565b60606000805480602002602001604051908101604052809291908181526020018280548015610b3b57602002820191906000526020600020905b8160009054906101000a900473ffffffffffffffffffffffffffffffffffffffff1673ffffffffffffffffffffffffffffffffffffffff1681526020019060010190808311610af1575b5050505050905090565b60026020528060005260406000206000915054906101000a900460ff1681565b600260003373ffffffffffffffffffffffffffffffffffffffff1673ffffffffffffffffffffffffffffffffffffffff16815260200190815260200160002060009054906101000a900460ff16801515610c4d576040517f08c379a00000000000000000000000000000000000000000000000000000000081526004018080602001828103825260298152602001807f546869732066756e6374696f6e206973206f6e6c7920617661696c61626c652081526020017f746f2061646d696e73000000000000000000000000000000000000000000000081525060400191505060405180910390fd5b6001600260008473ffffffffffffffffffffffffffffffffffffffff1673ffffffffffffffffffffffffffffffffffffffff16815260200190815260200160002060006101000a81548160ff02191690831515021790555060008290806001815401808255809150509060018203906000526020600020016000909192909190916101000a81548173ffffffffffffffffffffffffffffffffffffffff021916908373ffffffffffffffffffffffffffffffffffffffff160217905550508173ffffffffffffffffffffffffffffffffffffffff167f873b6546df550db4e197c19f621af58777f109107ed897212d3ab52d5a9f2ede60405160405180910390a25050565b600460205281600052604060002081815481101515610d6d57fe5b906000526020600020016000915091509054906101000a900473ffffffffffffffffffffffffffffffffffffffff1681565b60606001805480602002602001604051908101604052809291908181526020018280548015610e2357602002820191906000526020600020905b8160009054906101000a900473ffffffffffffffffffffffffffffffffffffffff1673ffffffffffffffffffffffffffffffffffffffff1681526020019060010190808311610dd9575b5050505050905090565b600260003373ffffffffffffffffffffffffffffffffffffffff1673ffffffffffffffffffffffffffffffffffffffff16815260200190815260200160002060009054906101000a900460ff16801515610f15576040517f08c379a00000000000000000000000000000000000000000000000000000000081526004018080602001828103825260298152602001807f546869732066756e6374696f6e206973206f6e6c7920617661696c61626c652081526020017f746f2061646d696e73000000000000000000000000000000000000000000000081525060400191505060405180910390fd5b6001600360008473ffffffffffffffffffffffffffffffffffffffff1673ffffffffffffffffffffffffffffffffffffffff16815260200190815260200160002060006101000a81548160ff02191690831515021790555060018290806001815401808255809150509060018203906000526020600020016000909192909190916101000a81548173ffffffffffffffffffffffffffffffffffffffff021916908373ffffffffffffffffffffffffffffffffffffffff160217905550508173ffffffffffffffffffffffffffffffffffffffff167f9b6906422b19475ec1131684c08d1c6dd03361fc4c734e83a6ecd44acf0fc59660405160405180910390a25050565b60008181548110151561102957fe5b906000526020600020016000915054906101000a900473ffffffffffffffffffffffffffffffffffffffff1681565b6060600460003373ffffffffffffffffffffffffffffffffffffffff1673ffffffffffffffffffffffffffffffffffffffff16815260200190815260200160002080548060200260200160405190810160405280929190818152602001828054801561111957602002820191906000526020600020905b8160009054906101000a900473ffffffffffffffffffffffffffffffffffffffff1673ffffffffffffffffffffffffffffffffffffffff16815260200190600101908083116110cf575b5050505050905090565b606060011515600260003373ffffffffffffffffffffffffffffffffffffffff1673ffffffffffffffffffffffffffffffffffffffff16815260200190815260200160002060009054906101000a900460ff16151514156111bb576040805190810160405280600581526020017f61646d696e000000000000000000000000000000000000000000000000000000815250905061128a565b60011515600360003373ffffffffffffffffffffffffffffffffffffffff1673ffffffffffffffffffffffffffffffffffffffff16815260200190815260200160002060009054906101000a900460ff1615151415611251576040805190810160405280600a81526020017f73746f72654f776e657200000000000000000000000000000000000000000000815250905061128a565b6040805190810160405280600781526020017f726567756c61720000000000000000000000000000000000000000000000000081525090505b90565b6040516116708061129e8339019056fe60806040523480156200001157600080fd5b506040516200167038038062001670833981018060405260608110156200003757600080fd5b810190808051906020019092919080516401000000008111156200005a57600080fd5b828101905060208101848111156200007157600080fd5b81518560018202830111640100000000821117156200008f57600080fd5b50509291906020018051640100000000811115620000ac57600080fd5b82810190506020810184811115620000c357600080fd5b8151856001820283011164010000000082111715620000e157600080fd5b5050929190505050826000806101000a81548173ffffffffffffffffffffffffffffffffffffffff021916908373ffffffffffffffffffffffffffffffffffffffff1602179055508160019080519060200190620001419291906200016c565b5080600290805190602001906200015a9291906200016c565b5060006004819055505050506200021b565b828054600181600116156101000203166002900490600052602060002090601f016020900481019282601f10620001af57805160ff1916838001178555620001e0565b82800160010185558215620001e0579182015b82811115620001df578251825591602001919060010190620001c2565b5b509050620001ef9190620001f3565b5090565b6200021891905b8082111562000214576000816000905550600101620001fa565b5090565b90565b611445806200022b6000396000f3fe608060405260043610610099576000357c0100000000000000000000000000000000000000000000000000000000900463ffffffff16806306fdde031461009e57806331a590901461012e5780633ccfd60b14610263578063561795831461026d578063637fd295146102985780637284e416146104015780638da5cb5b1461049157806394f6f06c146104e85780639979c0091461052d575b600080fd5b3480156100aa57600080fd5b506100b3610565565b6040518080602001828103825283818151815260200191508051906020019080838360005b838110156100f35780820151818401526020810190506100d8565b50505050905090810190601f1680156101205780820380516001836020036101000a031916815260200191505b509250505060405180910390f35b34801561013a57600080fd5b506101676004803603602081101561015157600080fd5b8101908080359060200190929190505050610603565b604051808681526020018581526020018481526020018060200180602001838103835285818151815260200191508051906020019080838360005b838110156101bd5780820151818401526020810190506101a2565b50505050905090810190601f1680156101ea5780820380516001836020036101000a031916815260200191505b50838103825284818151815260200191508051906020019080838360005b83811015610223578082015181840152602081019050610208565b50505050905090810190601f1680156102505780820380516001836020036101000a031916815260200191505b5097505050505050505060405180910390f35b61026b610769565b005b34801561027957600080fd5b506102826108d4565b6040518082815260200191505060405180910390f35b3480156102a457600080fd5b506103ff600480360360608110156102bb57600080fd5b81019080803590602001906401000000008111156102d857600080fd5b8201836020820111156102ea57600080fd5b8035906020019184600183028401116401000000008311171561030c57600080fd5b91908080601f016020809104026020016040519081016040528093929190818152602001838380828437600081840152601f19601f8201169050808301925050505050505091929192908035906020019064010000000081111561036f57600080fd5b82018360208201111561038157600080fd5b803590602001918460018302840111640100000000831117156103a357600080fd5b91908080601f016020809104026020016040519081016040528093929190818152602001838380828437600081840152601f19601f820116905080830192505050505050509192919290803590602001909291905050506108da565b005b34801561040d57600080fd5b50610416610bb9565b6040518080602001828103825283818151815260200191508051906020019080838360005b8381101561045657808201518184015260208101905061043b565b50505050905090810190601f1680156104835780820380516001836020036101000a031916815260200191505b509250505060405180910390f35b34801561049d57600080fd5b506104a6610c57565b604051808273ffffffffffffffffffffffffffffffffffffffff1673ffffffffffffffffffffffffffffffffffffffff16815260200191505060405180910390f35b3480156104f457600080fd5b5061052b6004803603604081101561050b57600080fd5b810190808035906020019092919080359060200190929190505050610c7c565b005b6105636004803603604081101561054357600080fd5b810190808035906020019092919080359060200190929190505050610e69565b005b60018054600181600116156101000203166002900480601f0160208091040260200160405190810160405280929190818152602001828054600181600116156101000203166002900480156105fb5780601f106105d0576101008083540402835291602001916105fb565b820191906000526020600020905b8154815290600101906020018083116105de57829003601f168201915b505050505081565b6003602052806000526040600020600091509050806000015490806001015490806002015490806003018054600181600116156101000203166002900480601f0160208091040260200160405190810160405280929190818152602001828054600181600116156101000203166002900480156106c15780601f10610696576101008083540402835291602001916106c1565b820191906000526020600020905b8154815290600101906020018083116106a457829003601f168201915b505050505090806004018054600181600116156101000203166002900480601f01602080910402602001604051908101604052809291908181526020018280546001816001161561010002031660029004801561075f5780601f106107345761010080835404028352916020019161075f565b820191906000526020600020905b81548152906001019060200180831161074257829003601f168201915b5050505050905085565b6000809054906101000a900473ffffffffffffffffffffffffffffffffffffffff1673ffffffffffffffffffffffffffffffffffffffff163373ffffffffffffffffffffffffffffffffffffffff16141515610853576040517f08c379a00000000000000000000000000000000000000000000000000000000081526004018080602001828103825260358152602001807f5468697320616374696f6e2063616e206f6e6c7920626520706572666f726d6581526020017f64206279207468652073746f7265206f776e65722e000000000000000000000081525060400191505060405180910390fd5b6000809054906101000a900473ffffffffffffffffffffffffffffffffffffffff1673ffffffffffffffffffffffffffffffffffffffff166108fc3073ffffffffffffffffffffffffffffffffffffffff16319081150290604051600060405180830381858888f193505050501580156108d1573d6000803e3d6000fd5b50565b60045481565b6000809054906101000a900473ffffffffffffffffffffffffffffffffffffffff1673ffffffffffffffffffffffffffffffffffffffff163373ffffffffffffffffffffffffffffffffffffffff161415156109c4576040517f08c379a00000000000000000000000000000000000000000000000000000000081526004018080602001828103825260358152602001807f5468697320616374696f6e2063616e206f6e6c7920626520706572666f726d6581526020017f64206279207468652073746f7265206f776e65722e000000000000000000000081525060400191505060405180910390fd5b6109cc611344565b60a0604051908101604052806109e56004546001611159565b8152602001600081526020018381526020018581526020018481525090508060036000610a156004546001611159565b81526020019081526020016000206000820151816000015560208201518160010155604082015181600201556060820151816003019080519060200190610a5d929190611374565b506080820151816004019080519060200190610a7a929190611374565b50905050610a8b6004546001611159565b60048190555080600001517fe88f4f683679120e63868ff548e4a8243a46ce6db3abb741a667bd3088c27b01826060015183608001518460400151604051808060200180602001848152602001838103835286818151815260200191508051906020019080838360005b83811015610b10578082015181840152602081019050610af5565b50505050905090810190601f168015610b3d5780820380516001836020036101000a031916815260200191505b50838103825285818151815260200191508051906020019080838360005b83811015610b76578082015181840152602081019050610b5b565b50505050905090810190601f168015610ba35780820380516001836020036101000a031916815260200191505b509550505050505060405180910390a250505050565b60028054600181600116156101000203166002900480601f016020809104026020016040519081016040528092919081815260200182805460018160011615610100020316600290048015610c4f5780601f10610c2457610100808354040283529160200191610c4f565b820191906000526020600020905b815481529060010190602001808311610c3257829003601f168201915b505050505081565b6000809054906101000a900473ffffffffffffffffffffffffffffffffffffffff1681565b816000610c8b6004548361122f565b10151515610d27576040517f08c379a00000000000000000000000000000000000000000000000000000000081526004018080602001828103825260278152602001807f54686973206974656d20646f6573206e6f7420657869737420696e207468697381526020017f2073746f72652e0000000000000000000000000000000000000000000000000081525060400191505060405180910390fd5b6000809054906101000a900473ffffffffffffffffffffffffffffffffffffffff1673ffffffffffffffffffffffffffffffffffffffff163373ffffffffffffffffffffffffffffffffffffffff16141515610e11576040517f08c379a00000000000000000000000000000000000000000000000000000000081526004018080602001828103825260358152602001807f5468697320616374696f6e2063616e206f6e6c7920626520706572666f726d6581526020017f64206279207468652073746f7265206f776e65722e000000000000000000000081525060400191505060405180910390fd5b816003600085815260200190815260200160002060010181905550827f4abd6a27243f1f72d18a5da44ac65bd0ecafaddfb62ef532dd4a5b08c3a55e6f836040518082815260200191505060405180910390a2505050565b816000610e786004548361122f565b10151515610f14576040517f08c379a00000000000000000000000000000000000000000000000000000000081526004018080602001828103825260278152602001807f54686973206974656d20646f6573206e6f7420657869737420696e207468697381526020017f2073746f72652e0000000000000000000000000000000000000000000000000081525060400191505060405180910390fd5b82826000610f3860036000858152602001908152602001600020600101548361122f565b10151515610fae576040517f08c379a000000000000000000000000000000000000000000000000000000000815260040180806020018281038252601a8152602001807f4e6f7420656e6f75676820696e76656e746f7279206c6566742e00000000000081525060200191505060405180910390fd5b8484610fd0600360008481526020019081526020016000206002015482611306565b3410151515611047576040517f08c379a000000000000000000000000000000000000000000000000000000000815260040180806020018281038252601a8152602001807f4e6f7420656e6f7567682045746865722070726f76696465642e00000000000081525060200191505060405180910390fd5b61106760036000898152602001908152602001600020600101548761122f565b6003600089815260200190815260200160002060010181905550867f23264d7f0128773d5204a6e287fb4ff81585ca4448acc4d11a9b9247b980fc89876040518082815260200191505060405180910390a26110d9600360008481526020019081526020016000206002015482611306565b341115611150573373ffffffffffffffffffffffffffffffffffffffff166108fc6111233461111e600360008881526020019081526020016000206002015486611306565b61122f565b9081150290604051600060405180830381858888f1935050505015801561114e573d6000803e3d6000fd5b505b50505050505050565b6000808284019050838110151515611225576040517f08c379a00000000000000000000000000000000000000000000000000000000081526004018080602001828103825260538152602001807f617661696c61626c652073746f726549442773202f20736b752773206f76657281526020017f666c6f776e2e20436f6e73696465722072657573696e6720766f6964206f722081526020017f616c7068616e756d657269632076616c7565730000000000000000000000000081525060600191505060405180910390fd5b8091505092915050565b60008282111515156112f5576040517f08c379a000000000000000000000000000000000000000000000000000000000815260040180806020018281038252604f8152602001807f4572726f722e20596f752061726520747279696e6720746f207769746864726181526020017f77206d6f72652066756e6473207468616e2061726520617661696c61626c652081526020017f696e20746865206163636f756e742e000000000000000000000000000000000081525060600191505060405180910390fd5b600082840390508091505092915050565b600080831415611319576000905061133e565b6000828402905082848281151561132c57fe5b0414151561133957600080fd5b809150505b92915050565b60a06040519081016040528060008152602001600081526020016000815260200160608152602001606081525090565b828054600181600116156101000203166002900490600052602060002090601f016020900481019282601f106113b557805160ff19168380011785556113e3565b828001600101855582156113e3579182015b828111156113e25782518255916020019190600101906113c7565b5b5090506113f091906113f4565b5090565b61141691905b808211156114125760008160009055506001016113fa565b5090565b9056fea165627a7a723058208e2552938b3344778d464d67fe65c62ad31e089f5e8f0ca64da868afb8eaa7400029a165627a7a723058200498a1109dc685cc83c5c9e71e9ce8f0608fa905f0d632f23cd1faf2bca382e30029",
  "source": "pragma solidity ^0.5.0;\n\nimport './Store.sol';\n\ncontract Marketplace {\n\n  address[] public adminsList;\n  address[] public storeOwnersList;\n  mapping (address => bool) public admins;\n  mapping (address => bool) public storeOwners;\n  mapping (address => address[]) public storeAddressesByOwner;\n\n  /* Events */\n  event LogAdminAdded(address indexed _admin);\n  event logAdminDeleted(address indexed _admin);\n  event LogStoreOwnerAdded(address indexed _storeOwner);\n  event LogStoreOwnerDeleted(address indexed _storeOwner);\n  event LogNewStoreCreated(address owner, address store);\n\n  /* Modifiers */\n  modifier isAdmin(bool _exists) {\n    require(_exists, \"This function is only available to admins\");\n    _;\n  }\n\n  modifier isStoreOwner(bool _exists) {\n      require(_exists, \"This function is only available to store owners\");\n      _;\n  }\n\n  /* Functions */\n  function addAdmin(address _newAdmin)\n    public\n    isAdmin(admins[msg.sender])\n  {\n    admins[_newAdmin] = true;\n    adminsList.push(_newAdmin);\n    emit LogAdminAdded(_newAdmin);\n  }\n\n  function addStoreOwner(address _newStoreOwner)\n    public\n    isAdmin(admins[msg.sender])\n  {\n    storeOwners[_newStoreOwner] = true;\n    storeOwnersList.push(_newStoreOwner);\n    emit LogStoreOwnerAdded(_newStoreOwner);\n  }\n\n  function createNewStore(string memory name, string memory description)\n    public\n    isStoreOwner(storeOwners[msg.sender])\n  {\n    Store newStore = new Store(msg.sender, name, description);\n    storeAddressesByOwner[msg.sender].push(address(newStore));\n    emit LogNewStoreCreated(msg.sender, address(newStore));\n  }\n\n  function getStoreAddressesByOwner()\n    public\n    view\n    returns(address[] memory)\n  {\n    return storeAddressesByOwner[msg.sender];\n  }\n\n  function getUserRole()\n    public\n    view\n    returns(string memory)\n  {\n    if(admins[msg.sender] == true) {\n      return \"admin\";\n    }\n    else if(storeOwners[msg.sender] == true) {\n      return \"storeOwner\";\n    }\n    else {\n      return \"regular\";\n    }\n  }\n\n  function getAdmins()\n    public\n    view\n    returns(address[] memory)\n  {\n    return(adminsList);\n  }\n\n  function getStoreOwners()\n    public\n    view\n    returns(address[] memory)\n  {\n    return(storeOwnersList);\n  }\n\n  /* Init */\n  constructor() public {\n    admins[msg.sender] = true;\n    adminsList.push(msg.sender);\n  }\n\n}\n",
  "sourcePath": "/home/clement/consensys/final-project-clemkn/contracts/Marketplace.sol",
  "compiler": {
    "name": "solc",
    "version": "0.5.0+commit.1d4f565a.Emscripten.clang"
  },
  "schemaVersion": "3.0.0",
  "updatedAt": "2019-01-27T20:43:48.041Z",
  "devdoc": {
    "methods": {}
  },
  "userdoc": {
    "methods": {}
  }
}