{
  "contractName": "Marketplace",
  "abi": [
    {
      "constant": true,
      "inputs": [
        {
          "name": "",
          "type": "address"
        }
      ],
      "name": "storeOwners",
      "outputs": [
        {
          "name": "",
          "type": "bool"
        }
      ],
      "payable": false,
      "stateMutability": "view",
      "type": "function"
    },
    {
      "constant": true,
      "inputs": [
        {
          "name": "",
          "type": "uint256"
        }
      ],
      "name": "storeOwnersList",
      "outputs": [
        {
          "name": "",
          "type": "address"
        }
      ],
      "payable": false,
      "stateMutability": "view",
      "type": "function"
    },
    {
      "constant": true,
      "inputs": [
        {
          "name": "",
          "type": "address"
        }
      ],
      "name": "admins",
      "outputs": [
        {
          "name": "",
          "type": "bool"
        }
      ],
      "payable": false,
      "stateMutability": "view",
      "type": "function"
    },
    {
      "constant": true,
      "inputs": [
        {
          "name": "",
          "type": "address"
        },
        {
          "name": "",
          "type": "uint256"
        }
      ],
      "name": "storeAddressesByOwner",
      "outputs": [
        {
          "name": "",
          "type": "address"
        }
      ],
      "payable": false,
      "stateMutability": "view",
      "type": "function"
    },
    {
      "constant": true,
      "inputs": [
        {
          "name": "",
          "type": "uint256"
        }
      ],
      "name": "adminsList",
      "outputs": [
        {
          "name": "",
          "type": "address"
        }
      ],
      "payable": false,
      "stateMutability": "view",
      "type": "function"
    },
    {
      "inputs": [],
      "payable": false,
      "stateMutability": "nonpayable",
      "type": "constructor"
    },
    {
      "anonymous": false,
      "inputs": [
        {
          "indexed": true,
          "name": "_admin",
          "type": "address"
        }
      ],
      "name": "LogAdminAdded",
      "type": "event"
    },
    {
      "anonymous": false,
      "inputs": [
        {
          "indexed": true,
          "name": "_admin",
          "type": "address"
        }
      ],
      "name": "logAdminDeleted",
      "type": "event"
    },
    {
      "anonymous": false,
      "inputs": [
        {
          "indexed": true,
          "name": "_storeOwner",
          "type": "address"
        }
      ],
      "name": "LogStoreOwnerAdded",
      "type": "event"
    },
    {
      "anonymous": false,
      "inputs": [
        {
          "indexed": true,
          "name": "_storeOwner",
          "type": "address"
        }
      ],
      "name": "LogStoreOwnerDeleted",
      "type": "event"
    },
    {
      "anonymous": false,
      "inputs": [
        {
          "indexed": false,
          "name": "owner",
          "type": "address"
        },
        {
          "indexed": false,
          "name": "store",
          "type": "address"
        }
      ],
      "name": "LogNewStoreCreated",
      "type": "event"
    },
    {
      "constant": false,
      "inputs": [
        {
          "name": "_newAdmin",
          "type": "address"
        }
      ],
      "name": "addAdmin",
      "outputs": [],
      "payable": false,
      "stateMutability": "nonpayable",
      "type": "function"
    },
    {
      "constant": false,
      "inputs": [
        {
          "name": "_newStoreOwner",
          "type": "address"
        }
      ],
      "name": "addStoreOwner",
      "outputs": [],
      "payable": false,
      "stateMutability": "nonpayable",
      "type": "function"
    },
    {
      "constant": false,
      "inputs": [
        {
          "name": "name",
          "type": "string"
        },
        {
          "name": "description",
          "type": "string"
        }
      ],
      "name": "createNewStore",
      "outputs": [],
      "payable": false,
      "stateMutability": "nonpayable",
      "type": "function"
    },
    {
      "constant": true,
      "inputs": [],
      "name": "getStoreAddressesByOwner",
      "outputs": [
        {
          "name": "",
          "type": "address[]"
        }
      ],
      "payable": false,
      "stateMutability": "view",
      "type": "function"
    },
    {
      "constant": true,
      "inputs": [],
      "name": "getUserRole",
      "outputs": [
        {
          "name": "",
          "type": "string"
        }
      ],
      "payable": false,
      "stateMutability": "view",
      "type": "function"
    },
    {
      "constant": true,
      "inputs": [],
      "name": "getAdmins",
      "outputs": [
        {
          "name": "",
          "type": "address[]"
        }
      ],
      "payable": false,
      "stateMutability": "view",
      "type": "function"
    },
    {
      "constant": true,
      "inputs": [],
      "name": "getStoreOwners",
      "outputs": [
        {
          "name": "",
          "type": "address[]"
        }
      ],
      "payable": false,
      "stateMutability": "view",
      "type": "function"
    }
  ],
  "bytecode": "0x608060405234801561001057600080fd5b506001600260003373ffffffffffffffffffffffffffffffffffffffff1673ffffffffffffffffffffffffffffffffffffffff16815260200190815260200160002060006101000a81548160ff02191690831515021790555060003390806001815401808255809150509060018203906000526020600020016000909192909190916101000a81548173ffffffffffffffffffffffffffffffffffffffff021916908373ffffffffffffffffffffffffffffffffffffffff16021790555050612d77806100de6000396000f3fe608060405260043610620000c7576000357c0100000000000000000000000000000000000000000000000000000000900463ffffffff168063057cc2a114620000cc5780630a25cced1462000139578063240c8b7714620002a257806331ae450b1462000321578063429b62e514620003925780637048027514620003ff57806374d9037b146200045457806391f4245a14620004f35780639adeb5f11462000564578063a470529414620005b9578063b9e17a731462000638578063bf04a10d14620006a9575b600080fd5b348015620000d957600080fd5b506200011f60048036036020811015620000f257600080fd5b81019080803573ffffffffffffffffffffffffffffffffffffffff1690602001909291905050506200073f565b604051808215151515815260200191505060405180910390f35b3480156200014657600080fd5b50620002a0600480360360408110156200015f57600080fd5b81019080803590602001906401000000008111156200017d57600080fd5b8201836020820111156200019057600080fd5b80359060200191846001830284011164010000000083111715620001b357600080fd5b91908080601f016020809104026020016040519081016040528093929190818152602001838380828437600081840152601f19601f820116905080830192505050505050509192919290803590602001906401000000008111156200021757600080fd5b8201836020820111156200022a57600080fd5b803590602001918460018302840111640100000000831117156200024d57600080fd5b91908080601f016020809104026020016040519081016040528093929190818152602001838380828437600081840152601f19601f8201169050808301925050505050505091929192905050506200075f565b005b348015620002af57600080fd5b50620002df60048036036020811015620002c857600080fd5b810190808035906020019092919050505062000acb565b604051808273ffffffffffffffffffffffffffffffffffffffff1673ffffffffffffffffffffffffffffffffffffffff16815260200191505060405180910390f35b3480156200032e57600080fd5b506200033962000b0a565b6040518080602001828103825283818151815260200191508051906020019060200280838360005b838110156200037e57808201518184015260208101905062000361565b505050509050019250505060405180910390f35b3480156200039f57600080fd5b50620003e560048036036020811015620003b857600080fd5b81019080803573ffffffffffffffffffffffffffffffffffffffff16906020019092919050505062000b9a565b604051808215151515815260200191505060405180910390f35b3480156200040c57600080fd5b5062000452600480360360208110156200042557600080fd5b81019080803573ffffffffffffffffffffffffffffffffffffffff16906020019092919050505062000bba565b005b3480156200046157600080fd5b50620004b1600480360360408110156200047a57600080fd5b81019080803573ffffffffffffffffffffffffffffffffffffffff1690602001909291908035906020019092919050505062000da8565b604051808273ffffffffffffffffffffffffffffffffffffffff1673ffffffffffffffffffffffffffffffffffffffff16815260200191505060405180910390f35b3480156200050057600080fd5b506200050b62000df6565b6040518080602001828103825283818151815260200191508051906020019060200280838360005b838110156200055057808201518184015260208101905062000533565b505050509050019250505060405180910390f35b3480156200057157600080fd5b50620005b7600480360360208110156200058a57600080fd5b81019080803573ffffffffffffffffffffffffffffffffffffffff16906020019092919050505062000e86565b005b348015620005c657600080fd5b50620005f660048036036020811015620005df57600080fd5b810190808035906020019092919050505062001074565b604051808273ffffffffffffffffffffffffffffffffffffffff1673ffffffffffffffffffffffffffffffffffffffff16815260200191505060405180910390f35b3480156200064557600080fd5b5062000650620010b3565b6040518080602001828103825283818151815260200191508051906020019060200280838360005b838110156200069557808201518184015260208101905062000678565b505050509050019250505060405180910390f35b348015620006b657600080fd5b50620006c162001180565b6040518080602001828103825283818151815260200191508051906020019080838360005b8381101562000703578082015181840152602081019050620006e6565b50505050905090810190601f168015620007315780820380516001836020036101000a031916815260200191505b509250505060405180910390f35b60036020528060005260406000206000915054906101000a900460ff1681565b600360003373ffffffffffffffffffffffffffffffffffffffff1673ffffffffffffffffffffffffffffffffffffffff16815260200190815260200160002060009054906101000a900460ff1680151562000848576040517f08c379a000000000000000000000000000000000000000000000000000000000815260040180806020018281038252602f8152602001807f546869732066756e6374696f6e206973206f6e6c7920617661696c61626c652081526020017f746f2073746f7265206f776e657273000000000000000000000000000000000081525060400191505060405180910390fd5b600033848462000857620012ee565b808473ffffffffffffffffffffffffffffffffffffffff1673ffffffffffffffffffffffffffffffffffffffff1681526020018060200180602001838103835285818151815260200191508051906020019080838360005b83811015620008cc578082015181840152602081019050620008af565b50505050905090810190601f168015620008fa5780820380516001836020036101000a031916815260200191505b50838103825284818151815260200191508051906020019080838360005b838110156200093557808201518184015260208101905062000918565b50505050905090810190601f168015620009635780820380516001836020036101000a031916815260200191505b5095505050505050604051809103906000f08015801562000988573d6000803e3d6000fd5b509050600460003373ffffffffffffffffffffffffffffffffffffffff1673ffffffffffffffffffffffffffffffffffffffff1681526020019081526020016000208190806001815401808255809150509060018203906000526020600020016000909192909190916101000a81548173ffffffffffffffffffffffffffffffffffffffff021916908373ffffffffffffffffffffffffffffffffffffffff160217905550507f41b3fc7756c31368b828b3c0d5a0e45810b7f60f262f3936f6bb536dca7b2d383382604051808373ffffffffffffffffffffffffffffffffffffffff1673ffffffffffffffffffffffffffffffffffffffff1681526020018273ffffffffffffffffffffffffffffffffffffffff1673ffffffffffffffffffffffffffffffffffffffff1681526020019250505060405180910390a150505050565b60018181548110151562000adb57fe5b906000526020600020016000915054906101000a900473ffffffffffffffffffffffffffffffffffffffff1681565b6060600080548060200260200160405190810160405280929190818152602001828054801562000b9057602002820191906000526020600020905b8160009054906101000a900473ffffffffffffffffffffffffffffffffffffffff1673ffffffffffffffffffffffffffffffffffffffff168152602001906001019080831162000b45575b5050505050905090565b60026020528060005260406000206000915054906101000a900460ff1681565b600260003373ffffffffffffffffffffffffffffffffffffffff1673ffffffffffffffffffffffffffffffffffffffff16815260200190815260200160002060009054906101000a900460ff1680151562000ca3576040517f08c379a00000000000000000000000000000000000000000000000000000000081526004018080602001828103825260298152602001807f546869732066756e6374696f6e206973206f6e6c7920617661696c61626c652081526020017f746f2061646d696e73000000000000000000000000000000000000000000000081525060400191505060405180910390fd5b6001600260008473ffffffffffffffffffffffffffffffffffffffff1673ffffffffffffffffffffffffffffffffffffffff16815260200190815260200160002060006101000a81548160ff02191690831515021790555060008290806001815401808255809150509060018203906000526020600020016000909192909190916101000a81548173ffffffffffffffffffffffffffffffffffffffff021916908373ffffffffffffffffffffffffffffffffffffffff160217905550508173ffffffffffffffffffffffffffffffffffffffff167f873b6546df550db4e197c19f621af58777f109107ed897212d3ab52d5a9f2ede60405160405180910390a25050565b60046020528160005260406000208181548110151562000dc457fe5b906000526020600020016000915091509054906101000a900473ffffffffffffffffffffffffffffffffffffffff1681565b6060600180548060200260200160405190810160405280929190818152602001828054801562000e7c57602002820191906000526020600020905b8160009054906101000a900473ffffffffffffffffffffffffffffffffffffffff1673ffffffffffffffffffffffffffffffffffffffff168152602001906001019080831162000e31575b5050505050905090565b600260003373ffffffffffffffffffffffffffffffffffffffff1673ffffffffffffffffffffffffffffffffffffffff16815260200190815260200160002060009054906101000a900460ff1680151562000f6f576040517f08c379a00000000000000000000000000000000000000000000000000000000081526004018080602001828103825260298152602001807f546869732066756e6374696f6e206973206f6e6c7920617661696c61626c652081526020017f746f2061646d696e73000000000000000000000000000000000000000000000081525060400191505060405180910390fd5b6001600360008473ffffffffffffffffffffffffffffffffffffffff1673ffffffffffffffffffffffffffffffffffffffff16815260200190815260200160002060006101000a81548160ff02191690831515021790555060018290806001815401808255809150509060018203906000526020600020016000909192909190916101000a81548173ffffffffffffffffffffffffffffffffffffffff021916908373ffffffffffffffffffffffffffffffffffffffff160217905550508173ffffffffffffffffffffffffffffffffffffffff167f9b6906422b19475ec1131684c08d1c6dd03361fc4c734e83a6ecd44acf0fc59660405160405180910390a25050565b6000818154811015156200108457fe5b906000526020600020016000915054906101000a900473ffffffffffffffffffffffffffffffffffffffff1681565b6060600460003373ffffffffffffffffffffffffffffffffffffffff1673ffffffffffffffffffffffffffffffffffffffff1681526020019081526020016000208054806020026020016040519081016040528092919081815260200182805480156200117657602002820191906000526020600020905b8160009054906101000a900473ffffffffffffffffffffffffffffffffffffffff1673ffffffffffffffffffffffffffffffffffffffff16815260200190600101908083116200112b575b5050505050905090565b606060011515600260003373ffffffffffffffffffffffffffffffffffffffff1673ffffffffffffffffffffffffffffffffffffffff16815260200190815260200160002060009054906101000a900460ff16151514156200121a576040805190810160405280600581526020017f61646d696e0000000000000000000000000000000000000000000000000000008152509050620012eb565b60011515600360003373ffffffffffffffffffffffffffffffffffffffff1673ffffffffffffffffffffffffffffffffffffffff16815260200190815260200160002060009054906101000a900460ff1615151415620012b2576040805190810160405280600a81526020017f73746f72654f776e6572000000000000000000000000000000000000000000008152509050620012eb565b6040805190810160405280600781526020017f726567756c61720000000000000000000000000000000000000000000000000081525090505b90565b604051611a4c80620013008339019056fe60806040526000600560006101000a81548160ff0219169083151502179055503480156200002c57600080fd5b5060405162001a4c38038062001a4c833981018060405260608110156200005257600080fd5b810190808051906020019092919080516401000000008111156200007557600080fd5b828101905060208101848111156200008c57600080fd5b8151856001820283011164010000000082111715620000aa57600080fd5b50509291906020018051640100000000811115620000c757600080fd5b82810190506020810184811115620000de57600080fd5b8151856001820283011164010000000082111715620000fc57600080fd5b505092919050505081602081511115151562000180576040517f08c379a00000000000000000000000000000000000000000000000000000000081526004018080602001828103825260138152602001807f537472696e6720697320746f6f2073686f72740000000000000000000000000081525060200191505060405180910390fd5b816020815111151515620001fc576040517f08c379a00000000000000000000000000000000000000000000000000000000081526004018080602001828103825260138152602001807f537472696e6720697320746f6f2073686f72740000000000000000000000000081525060200191505060405180910390fd5b846000806101000a81548173ffffffffffffffffffffffffffffffffffffffff021916908373ffffffffffffffffffffffffffffffffffffffff16021790555083600190805190602001906200025492919062000281565b5082600290805190602001906200026d92919062000281565b506000600481905550505050505062000330565b828054600181600116156101000203166002900490600052602060002090601f016020900481019282601f10620002c457805160ff1916838001178555620002f5565b82800160010185558215620002f5579182015b82811115620002f4578251825591602001919060010190620002d7565b5b50905062000304919062000308565b5090565b6200032d91905b80821115620003295760008160009055506001016200030f565b5090565b90565b61170c80620003406000396000f3fe6080604052600436106100af576000357c0100000000000000000000000000000000000000000000000000000000900463ffffffff16806306fdde03146100b45780631385d24c1461014457806331a590901461015b5780633ccfd60b14610290578063561795831461029a578063637fd295146102c55780637284e4161461042e57806375f12b21146104be5780638da5cb5b146104ed57806394f6f06c146105445780639979c00914610589575b600080fd5b3480156100c057600080fd5b506100c96105c1565b6040518080602001828103825283818151815260200191508051906020019080838360005b838110156101095780820151818401526020810190506100ee565b50505050905090810190601f1680156101365780820380516001836020036101000a031916815260200191505b509250505060405180910390f35b34801561015057600080fd5b5061015961065f565b005b34801561016757600080fd5b506101946004803603602081101561017e57600080fd5b81019080803590602001909291905050506107bf565b604051808681526020018581526020018481526020018060200180602001838103835285818151815260200191508051906020019080838360005b838110156101ea5780820151818401526020810190506101cf565b50505050905090810190601f1680156102175780820380516001836020036101000a031916815260200191505b50838103825284818151815260200191508051906020019080838360005b83811015610250578082015181840152602081019050610235565b50505050905090810190601f16801561027d5780820380516001836020036101000a031916815260200191505b5097505050505050505060405180910390f35b610298610925565b005b3480156102a657600080fd5b506102af610a90565b6040518082815260200191505060405180910390f35b3480156102d157600080fd5b5061042c600480360360608110156102e857600080fd5b810190808035906020019064010000000081111561030557600080fd5b82018360208201111561031757600080fd5b8035906020019184600183028401116401000000008311171561033957600080fd5b91908080601f016020809104026020016040519081016040528093929190818152602001838380828437600081840152601f19601f8201169050808301925050505050505091929192908035906020019064010000000081111561039c57600080fd5b8201836020820111156103ae57600080fd5b803590602001918460018302840111640100000000831117156103d057600080fd5b91908080601f016020809104026020016040519081016040528093929190818152602001838380828437600081840152601f19601f82011690508083019250505050505050919291929080359060200190929190505050610a96565b005b34801561043a57600080fd5b50610443610e6d565b6040518080602001828103825283818151815260200191508051906020019080838360005b83811015610483578082015181840152602081019050610468565b50505050905090810190601f1680156104b05780820380516001836020036101000a031916815260200191505b509250505060405180910390f35b3480156104ca57600080fd5b506104d3610f0b565b604051808215151515815260200191505060405180910390f35b3480156104f957600080fd5b50610502610f1e565b604051808273ffffffffffffffffffffffffffffffffffffffff1673ffffffffffffffffffffffffffffffffffffffff16815260200191505060405180910390f35b34801561055057600080fd5b506105876004803603604081101561056757600080fd5b810190808035906020019092919080359060200190929190505050610f43565b005b6105bf6004803603604081101561059f57600080fd5b810190808035906020019092919080359060200190929190505050611130565b005b60018054600181600116156101000203166002900480601f0160208091040260200160405190810160405280929190818152602001828054600181600116156101000203166002900480156106575780601f1061062c57610100808354040283529160200191610657565b820191906000526020600020905b81548152906001019060200180831161063a57829003601f168201915b505050505081565b6000809054906101000a900473ffffffffffffffffffffffffffffffffffffffff1673ffffffffffffffffffffffffffffffffffffffff163373ffffffffffffffffffffffffffffffffffffffff16141515610749576040517f08c379a00000000000000000000000000000000000000000000000000000000081526004018080602001828103825260358152602001807f5468697320616374696f6e2063616e206f6e6c7920626520706572666f726d6581526020017f64206279207468652073746f7265206f776e65722e000000000000000000000081525060400191505060405180910390fd5b600560009054906101000a900460ff1615600560006101000a81548160ff0219169083151502179055507f02a4ed6dba88d5c80d498658649dd27907c5e7bf1b64bed296d95151f92f0d65600560009054906101000a900460ff16604051808215151515815260200191505060405180910390a1565b6003602052806000526040600020600091509050806000015490806001015490806002015490806003018054600181600116156101000203166002900480601f01602080910402602001604051908101604052809291908181526020018280546001816001161561010002031660029004801561087d5780601f106108525761010080835404028352916020019161087d565b820191906000526020600020905b81548152906001019060200180831161086057829003601f168201915b505050505090806004018054600181600116156101000203166002900480601f01602080910402602001604051908101604052809291908181526020018280546001816001161561010002031660029004801561091b5780601f106108f05761010080835404028352916020019161091b565b820191906000526020600020905b8154815290600101906020018083116108fe57829003601f168201915b5050505050905085565b6000809054906101000a900473ffffffffffffffffffffffffffffffffffffffff1673ffffffffffffffffffffffffffffffffffffffff163373ffffffffffffffffffffffffffffffffffffffff16141515610a0f576040517f08c379a00000000000000000000000000000000000000000000000000000000081526004018080602001828103825260358152602001807f5468697320616374696f6e2063616e206f6e6c7920626520706572666f726d6581526020017f64206279207468652073746f7265206f776e65722e000000000000000000000081525060400191505060405180910390fd5b6000809054906101000a900473ffffffffffffffffffffffffffffffffffffffff1673ffffffffffffffffffffffffffffffffffffffff166108fc3073ffffffffffffffffffffffffffffffffffffffff16319081150290604051600060405180830381858888f19350505050158015610a8d573d6000803e3d6000fd5b50565b60045481565b6000809054906101000a900473ffffffffffffffffffffffffffffffffffffffff1673ffffffffffffffffffffffffffffffffffffffff163373ffffffffffffffffffffffffffffffffffffffff16141515610b80576040517f08c379a00000000000000000000000000000000000000000000000000000000081526004018080602001828103825260358152602001807f5468697320616374696f6e2063616e206f6e6c7920626520706572666f726d6581526020017f64206279207468652073746f7265206f776e65722e000000000000000000000081525060400191505060405180910390fd5b826020815111151515610bfb576040517f08c379a00000000000000000000000000000000000000000000000000000000081526004018080602001828103825260138152602001807f537472696e6720697320746f6f2073686f72740000000000000000000000000081525060200191505060405180910390fd5b826020815111151515610c76576040517f08c379a00000000000000000000000000000000000000000000000000000000081526004018080602001828103825260138152602001807f537472696e6720697320746f6f2073686f72740000000000000000000000000081525060200191505060405180910390fd5b610c7e61160b565b60a060405190810160405280610c976004546001611420565b8152602001600081526020018581526020018781526020018681525090508060036000610cc76004546001611420565b81526020019081526020016000206000820151816000015560208201518160010155604082015181600201556060820151816003019080519060200190610d0f92919061163b565b506080820151816004019080519060200190610d2c92919061163b565b50905050610d3d6004546001611420565b60048190555080600001517fe88f4f683679120e63868ff548e4a8243a46ce6db3abb741a667bd3088c27b01826060015183608001518460400151604051808060200180602001848152602001838103835286818151815260200191508051906020019080838360005b83811015610dc2578082015181840152602081019050610da7565b50505050905090810190601f168015610def5780820380516001836020036101000a031916815260200191505b50838103825285818151815260200191508051906020019080838360005b83811015610e28578082015181840152602081019050610e0d565b50505050905090810190601f168015610e555780820380516001836020036101000a031916815260200191505b509550505050505060405180910390a2505050505050565b60028054600181600116156101000203166002900480601f016020809104026020016040519081016040528092919081815260200182805460018160011615610100020316600290048015610f035780601f10610ed857610100808354040283529160200191610f03565b820191906000526020600020905b815481529060010190602001808311610ee657829003601f168201915b505050505081565b600560009054906101000a900460ff1681565b6000809054906101000a900473ffffffffffffffffffffffffffffffffffffffff1681565b816000610f52600454836114f6565b10151515610fee576040517f08c379a00000000000000000000000000000000000000000000000000000000081526004018080602001828103825260278152602001807f54686973206974656d20646f6573206e6f7420657869737420696e207468697381526020017f2073746f72652e0000000000000000000000000000000000000000000000000081525060400191505060405180910390fd5b6000809054906101000a900473ffffffffffffffffffffffffffffffffffffffff1673ffffffffffffffffffffffffffffffffffffffff163373ffffffffffffffffffffffffffffffffffffffff161415156110d8576040517f08c379a00000000000000000000000000000000000000000000000000000000081526004018080602001828103825260358152602001807f5468697320616374696f6e2063616e206f6e6c7920626520706572666f726d6581526020017f64206279207468652073746f7265206f776e65722e000000000000000000000081525060400191505060405180910390fd5b816003600085815260200190815260200160002060010181905550827f4abd6a27243f1f72d18a5da44ac65bd0ecafaddfb62ef532dd4a5b08c3a55e6f836040518082815260200191505060405180910390a2505050565b81600061113f600454836114f6565b101515156111db576040517f08c379a00000000000000000000000000000000000000000000000000000000081526004018080602001828103825260278152602001807f54686973206974656d20646f6573206e6f7420657869737420696e207468697381526020017f2073746f72652e0000000000000000000000000000000000000000000000000081525060400191505060405180910390fd5b828260006111ff6003600085815260200190815260200160002060010154836114f6565b10151515611275576040517f08c379a00000000000000000000000000000000000000000000000000000000081526004018080602001828103825260168152602001807f4e6f7420656e6f7567682073746f636b206c6566742e0000000000000000000081525060200191505060405180910390fd5b84846112976003600084815260200190815260200160002060020154826115cd565b341015151561130e576040517f08c379a00000000000000000000000000000000000000000000000000000000081526004018080602001828103825260188152602001807f4e6f7420656e6f756768206574682070726f76696465642e000000000000000081525060200191505060405180910390fd5b61132e6003600089815260200190815260200160002060010154876114f6565b6003600089815260200190815260200160002060010181905550867f23264d7f0128773d5204a6e287fb4ff81585ca4448acc4d11a9b9247b980fc89876040518082815260200191505060405180910390a26113a06003600084815260200190815260200160002060020154826115cd565b341115611417573373ffffffffffffffffffffffffffffffffffffffff166108fc6113ea346113e56003600088815260200190815260200160002060020154866115cd565b6114f6565b9081150290604051600060405180830381858888f19350505050158015611415573d6000803e3d6000fd5b505b50505050505050565b60008082840190508381101515156114ec576040517f08c379a00000000000000000000000000000000000000000000000000000000081526004018080602001828103825260538152602001807f617661696c61626c652073746f726549442773202f20736b752773206f76657281526020017f666c6f776e2e20436f6e73696465722072657573696e6720766f6964206f722081526020017f616c7068616e756d657269632076616c7565730000000000000000000000000081525060600191505060405180910390fd5b8091505092915050565b60008282111515156115bc576040517f08c379a000000000000000000000000000000000000000000000000000000000815260040180806020018281038252604f8152602001807f4572726f722e20596f752061726520747279696e6720746f207769746864726181526020017f77206d6f72652066756e6473207468616e2061726520617661696c61626c652081526020017f696e20746865206163636f756e742e000000000000000000000000000000000081525060600191505060405180910390fd5b600082840390508091505092915050565b6000808314156115e05760009050611605565b600082840290508284828115156115f357fe5b0414151561160057600080fd5b809150505b92915050565b60a06040519081016040528060008152602001600081526020016000815260200160608152602001606081525090565b828054600181600116156101000203166002900490600052602060002090601f016020900481019282601f1061167c57805160ff19168380011785556116aa565b828001600101855582156116aa579182015b828111156116a957825182559160200191906001019061168e565b5b5090506116b791906116bb565b5090565b6116dd91905b808211156116d95760008160009055506001016116c1565b5090565b9056fea165627a7a723058202411cf0f9b51ac66753cd134febbe4c641ee7ca73ec26fd415204f9eb378968b0029a165627a7a723058203827bf591cab5e7c3c6f49988d10712f1b52dc6c36022e1e33391e0dd08ca0cc0029",
  "source": "pragma solidity ^0.5.0;\n\nimport './Store.sol';\n\n/** @title Marketplace. */\ncontract Marketplace {\n\n  address[] public adminsList;\n  address[] public storeOwnersList;\n  mapping (address => bool) public admins;\n  mapping (address => bool) public storeOwners;\n  mapping (address => address[]) public storeAddressesByOwner;\n\n  /* Events */\n  event LogAdminAdded(address indexed _admin);\n  event logAdminDeleted(address indexed _admin);\n  event LogStoreOwnerAdded(address indexed _storeOwner);\n  event LogStoreOwnerDeleted(address indexed _storeOwner);\n  event LogNewStoreCreated(address owner, address store);\n\n  /** @dev Check if admin exists */\n  modifier isAdmin(bool _exists) {\n    require(_exists, \"This function is only available to admins\");\n    _;\n  }\n  /** @dev Check if store owner exists */\n  modifier isStoreOwner(bool _exists) {\n      require(_exists, \"This function is only available to store owners\");\n      _;\n  }\n\n  /** @dev Add a new admin.\n  * @param _newAdmin Address of the new admin.\n  */\n  function addAdmin(address _newAdmin)\n    public\n    isAdmin(admins[msg.sender])\n  {\n    admins[_newAdmin] = true;\n    adminsList.push(_newAdmin);\n    emit LogAdminAdded(_newAdmin);\n  }\n\n  /** @dev Add a new store owner.\n    * @param _newStoreOwner Address of the new store owner.\n    */\n  function addStoreOwner(address _newStoreOwner)\n    public\n    isAdmin(admins[msg.sender])\n  {\n    storeOwners[_newStoreOwner] = true;\n    storeOwnersList.push(_newStoreOwner);\n    emit LogStoreOwnerAdded(_newStoreOwner);\n  }\n\n  /** @dev Create a new store.\n    * @param name Name of the new store.\n    * @param description Description of the new store.\n    */\n  function createNewStore(string memory name, string memory description)\n    public\n    isStoreOwner(storeOwners[msg.sender])\n  {\n    Store newStore = new Store(msg.sender, name, description);\n    storeAddressesByOwner[msg.sender].push(address(newStore));\n    emit LogNewStoreCreated(msg.sender, address(newStore));\n  }\n\n  /** @dev Retrieve the stores' address by the current account.\n    * @return address[] The stores' address.\n    */\n  function getStoreAddressesByOwner()\n    public\n    view\n    returns(address[] memory)\n  {\n    return storeAddressesByOwner[msg.sender];\n  }\n\n  /** @dev Retrieve the role of the current account.\n    * @return A string indicating the user role.\n    */\n  function getUserRole()\n    public\n    view\n    returns(string memory)\n  {\n    if(admins[msg.sender] == true) {\n      return \"admin\";\n    }\n    else if(storeOwners[msg.sender] == true) {\n      return \"storeOwner\";\n    }\n    else {\n      return \"regular\";\n    }\n  }\n\n  /** @dev Retrieve the admin list.\n    * @return A list of the admins' address.\n    */\n  function getAdmins()\n    public\n    view\n    returns(address[] memory)\n  {\n    return(adminsList);\n  }\n\n  /** @dev Retrieve the store owners.\n    * @return A list of the store owners' address.\n    */\n  function getStoreOwners()\n    public\n    view\n    returns(address[] memory)\n  {\n    return(storeOwnersList);\n  }\n\n  /** @dev Init the contract with the current account as an admin.\n    */\n  constructor() public {\n    admins[msg.sender] = true;\n    adminsList.push(msg.sender);\n  }\n\n}\n",
  "sourcePath": "/home/clement/consensys/final-project-clemkn/contracts/Marketplace.sol",
  "compiler": {
    "name": "solc",
    "version": "0.5.0+commit.1d4f565a.Emscripten.clang"
  },
  "schemaVersion": "3.0.0",
  "updatedAt": "2019-01-28T01:53:52.750Z",
  "devdoc": {
    "methods": {
      "addAdmin(address)": {
        "details": "Add a new admin.",
        "params": {
          "_newAdmin": "Address of the new admin."
        }
      },
      "addStoreOwner(address)": {
        "details": "Add a new store owner.",
        "params": {
          "_newStoreOwner": "Address of the new store owner."
        }
      },
      "constructor": {
        "details": "Init the contract with the current account as an admin."
      },
      "createNewStore(string,string)": {
        "details": "Create a new store.",
        "params": {
          "description": "Description of the new store.",
          "name": "Name of the new store."
        }
      },
      "getAdmins()": {
        "details": "Retrieve the admin list.",
        "return": "A list of the admins' address."
      },
      "getStoreAddressesByOwner()": {
        "details": "Retrieve the stores' address by the current account.",
        "return": "address[] The stores' address."
      },
      "getStoreOwners()": {
        "details": "Retrieve the store owners.",
        "return": "A list of the store owners' address."
      },
      "getUserRole()": {
        "details": "Retrieve the role of the current account.",
        "return": "A string indicating the user role."
      }
    },
    "title": "Marketplace. "
  },
  "userdoc": {
    "methods": {}
  }
}