{
  "contractName": "Store",
  "abi": [
    {
      "constant": true,
      "inputs": [],
      "name": "name",
      "outputs": [
        {
          "name": "",
          "type": "string"
        }
      ],
      "payable": false,
      "stateMutability": "view",
      "type": "function"
    },
    {
      "constant": true,
      "inputs": [
        {
          "name": "",
          "type": "uint256"
        }
      ],
      "name": "itemsBySku",
      "outputs": [
        {
          "name": "sku",
          "type": "uint256"
        },
        {
          "name": "stockCount",
          "type": "uint256"
        },
        {
          "name": "price",
          "type": "uint256"
        },
        {
          "name": "name",
          "type": "string"
        },
        {
          "name": "description",
          "type": "string"
        }
      ],
      "payable": false,
      "stateMutability": "view",
      "type": "function"
    },
    {
      "constant": true,
      "inputs": [],
      "name": "latestSku",
      "outputs": [
        {
          "name": "",
          "type": "uint256"
        }
      ],
      "payable": false,
      "stateMutability": "view",
      "type": "function"
    },
    {
      "constant": true,
      "inputs": [],
      "name": "description",
      "outputs": [
        {
          "name": "",
          "type": "string"
        }
      ],
      "payable": false,
      "stateMutability": "view",
      "type": "function"
    },
    {
      "constant": true,
      "inputs": [],
      "name": "stopped",
      "outputs": [
        {
          "name": "",
          "type": "bool"
        }
      ],
      "payable": false,
      "stateMutability": "view",
      "type": "function"
    },
    {
      "constant": true,
      "inputs": [],
      "name": "owner",
      "outputs": [
        {
          "name": "",
          "type": "address"
        }
      ],
      "payable": false,
      "stateMutability": "view",
      "type": "function"
    },
    {
      "inputs": [
        {
          "name": "_owner",
          "type": "address"
        },
        {
          "name": "_name",
          "type": "string"
        },
        {
          "name": "_description",
          "type": "string"
        }
      ],
      "payable": false,
      "stateMutability": "nonpayable",
      "type": "constructor"
    },
    {
      "anonymous": false,
      "inputs": [
        {
          "indexed": false,
          "name": "name",
          "type": "string"
        },
        {
          "indexed": false,
          "name": "description",
          "type": "string"
        },
        {
          "indexed": true,
          "name": "sku",
          "type": "uint256"
        },
        {
          "indexed": false,
          "name": "price",
          "type": "uint256"
        }
      ],
      "name": "LogNewItemAdded",
      "type": "event"
    },
    {
      "anonymous": false,
      "inputs": [
        {
          "indexed": true,
          "name": "sku",
          "type": "uint256"
        },
        {
          "indexed": false,
          "name": "newStockCount",
          "type": "uint256"
        }
      ],
      "name": "LogStockCountUpdated",
      "type": "event"
    },
    {
      "anonymous": false,
      "inputs": [
        {
          "indexed": true,
          "name": "sku",
          "type": "uint256"
        },
        {
          "indexed": false,
          "name": "quantity",
          "type": "uint256"
        }
      ],
      "name": "LogPurchaseMade",
      "type": "event"
    },
    {
      "anonymous": false,
      "inputs": [
        {
          "indexed": false,
          "name": "isStopped",
          "type": "bool"
        }
      ],
      "name": "LogContractStateToggled",
      "type": "event"
    },
    {
      "constant": false,
      "inputs": [
        {
          "name": "_name",
          "type": "string"
        },
        {
          "name": "_description",
          "type": "string"
        },
        {
          "name": "_price",
          "type": "uint256"
        }
      ],
      "name": "addNewItem",
      "outputs": [],
      "payable": false,
      "stateMutability": "nonpayable",
      "type": "function"
    },
    {
      "constant": false,
      "inputs": [
        {
          "name": "_sku",
          "type": "uint256"
        },
        {
          "name": "newStockCount",
          "type": "uint256"
        }
      ],
      "name": "updateStockCount",
      "outputs": [],
      "payable": false,
      "stateMutability": "nonpayable",
      "type": "function"
    },
    {
      "constant": false,
      "inputs": [
        {
          "name": "_sku",
          "type": "uint256"
        },
        {
          "name": "quantity",
          "type": "uint256"
        }
      ],
      "name": "buyItem",
      "outputs": [],
      "payable": true,
      "stateMutability": "payable",
      "type": "function"
    },
    {
      "constant": false,
      "inputs": [],
      "name": "withdraw",
      "outputs": [],
      "payable": true,
      "stateMutability": "payable",
      "type": "function"
    },
    {
      "constant": false,
      "inputs": [],
      "name": "toggleContractActive",
      "outputs": [],
      "payable": false,
      "stateMutability": "nonpayable",
      "type": "function"
    }
  ],
  "bytecode": "0x60806040526000600560006101000a81548160ff0219169083151502179055503480156200002c57600080fd5b5060405162001a4c38038062001a4c833981018060405260608110156200005257600080fd5b810190808051906020019092919080516401000000008111156200007557600080fd5b828101905060208101848111156200008c57600080fd5b8151856001820283011164010000000082111715620000aa57600080fd5b50509291906020018051640100000000811115620000c757600080fd5b82810190506020810184811115620000de57600080fd5b8151856001820283011164010000000082111715620000fc57600080fd5b505092919050505081602081511115151562000180576040517f08c379a00000000000000000000000000000000000000000000000000000000081526004018080602001828103825260138152602001807f537472696e6720697320746f6f2073686f72740000000000000000000000000081525060200191505060405180910390fd5b816020815111151515620001fc576040517f08c379a00000000000000000000000000000000000000000000000000000000081526004018080602001828103825260138152602001807f537472696e6720697320746f6f2073686f72740000000000000000000000000081525060200191505060405180910390fd5b846000806101000a81548173ffffffffffffffffffffffffffffffffffffffff021916908373ffffffffffffffffffffffffffffffffffffffff16021790555083600190805190602001906200025492919062000281565b5082600290805190602001906200026d92919062000281565b506000600481905550505050505062000330565b828054600181600116156101000203166002900490600052602060002090601f016020900481019282601f10620002c457805160ff1916838001178555620002f5565b82800160010185558215620002f5579182015b82811115620002f4578251825591602001919060010190620002d7565b5b50905062000304919062000308565b5090565b6200032d91905b80821115620003295760008160009055506001016200030f565b5090565b90565b61170c80620003406000396000f3fe6080604052600436106100af576000357c0100000000000000000000000000000000000000000000000000000000900463ffffffff16806306fdde03146100b45780631385d24c1461014457806331a590901461015b5780633ccfd60b14610290578063561795831461029a578063637fd295146102c55780637284e4161461042e57806375f12b21146104be5780638da5cb5b146104ed57806394f6f06c146105445780639979c00914610589575b600080fd5b3480156100c057600080fd5b506100c96105c1565b6040518080602001828103825283818151815260200191508051906020019080838360005b838110156101095780820151818401526020810190506100ee565b50505050905090810190601f1680156101365780820380516001836020036101000a031916815260200191505b509250505060405180910390f35b34801561015057600080fd5b5061015961065f565b005b34801561016757600080fd5b506101946004803603602081101561017e57600080fd5b81019080803590602001909291905050506107bf565b604051808681526020018581526020018481526020018060200180602001838103835285818151815260200191508051906020019080838360005b838110156101ea5780820151818401526020810190506101cf565b50505050905090810190601f1680156102175780820380516001836020036101000a031916815260200191505b50838103825284818151815260200191508051906020019080838360005b83811015610250578082015181840152602081019050610235565b50505050905090810190601f16801561027d5780820380516001836020036101000a031916815260200191505b5097505050505050505060405180910390f35b610298610925565b005b3480156102a657600080fd5b506102af610a90565b6040518082815260200191505060405180910390f35b3480156102d157600080fd5b5061042c600480360360608110156102e857600080fd5b810190808035906020019064010000000081111561030557600080fd5b82018360208201111561031757600080fd5b8035906020019184600183028401116401000000008311171561033957600080fd5b91908080601f016020809104026020016040519081016040528093929190818152602001838380828437600081840152601f19601f8201169050808301925050505050505091929192908035906020019064010000000081111561039c57600080fd5b8201836020820111156103ae57600080fd5b803590602001918460018302840111640100000000831117156103d057600080fd5b91908080601f016020809104026020016040519081016040528093929190818152602001838380828437600081840152601f19601f82011690508083019250505050505050919291929080359060200190929190505050610a96565b005b34801561043a57600080fd5b50610443610e6d565b6040518080602001828103825283818151815260200191508051906020019080838360005b83811015610483578082015181840152602081019050610468565b50505050905090810190601f1680156104b05780820380516001836020036101000a031916815260200191505b509250505060405180910390f35b3480156104ca57600080fd5b506104d3610f0b565b604051808215151515815260200191505060405180910390f35b3480156104f957600080fd5b50610502610f1e565b604051808273ffffffffffffffffffffffffffffffffffffffff1673ffffffffffffffffffffffffffffffffffffffff16815260200191505060405180910390f35b34801561055057600080fd5b506105876004803603604081101561056757600080fd5b810190808035906020019092919080359060200190929190505050610f43565b005b6105bf6004803603604081101561059f57600080fd5b810190808035906020019092919080359060200190929190505050611130565b005b60018054600181600116156101000203166002900480601f0160208091040260200160405190810160405280929190818152602001828054600181600116156101000203166002900480156106575780601f1061062c57610100808354040283529160200191610657565b820191906000526020600020905b81548152906001019060200180831161063a57829003601f168201915b505050505081565b6000809054906101000a900473ffffffffffffffffffffffffffffffffffffffff1673ffffffffffffffffffffffffffffffffffffffff163373ffffffffffffffffffffffffffffffffffffffff16141515610749576040517f08c379a00000000000000000000000000000000000000000000000000000000081526004018080602001828103825260358152602001807f5468697320616374696f6e2063616e206f6e6c7920626520706572666f726d6581526020017f64206279207468652073746f7265206f776e65722e000000000000000000000081525060400191505060405180910390fd5b600560009054906101000a900460ff1615600560006101000a81548160ff0219169083151502179055507f02a4ed6dba88d5c80d498658649dd27907c5e7bf1b64bed296d95151f92f0d65600560009054906101000a900460ff16604051808215151515815260200191505060405180910390a1565b6003602052806000526040600020600091509050806000015490806001015490806002015490806003018054600181600116156101000203166002900480601f01602080910402602001604051908101604052809291908181526020018280546001816001161561010002031660029004801561087d5780601f106108525761010080835404028352916020019161087d565b820191906000526020600020905b81548152906001019060200180831161086057829003601f168201915b505050505090806004018054600181600116156101000203166002900480601f01602080910402602001604051908101604052809291908181526020018280546001816001161561010002031660029004801561091b5780601f106108f05761010080835404028352916020019161091b565b820191906000526020600020905b8154815290600101906020018083116108fe57829003601f168201915b5050505050905085565b6000809054906101000a900473ffffffffffffffffffffffffffffffffffffffff1673ffffffffffffffffffffffffffffffffffffffff163373ffffffffffffffffffffffffffffffffffffffff16141515610a0f576040517f08c379a00000000000000000000000000000000000000000000000000000000081526004018080602001828103825260358152602001807f5468697320616374696f6e2063616e206f6e6c7920626520706572666f726d6581526020017f64206279207468652073746f7265206f776e65722e000000000000000000000081525060400191505060405180910390fd5b6000809054906101000a900473ffffffffffffffffffffffffffffffffffffffff1673ffffffffffffffffffffffffffffffffffffffff166108fc3073ffffffffffffffffffffffffffffffffffffffff16319081150290604051600060405180830381858888f19350505050158015610a8d573d6000803e3d6000fd5b50565b60045481565b6000809054906101000a900473ffffffffffffffffffffffffffffffffffffffff1673ffffffffffffffffffffffffffffffffffffffff163373ffffffffffffffffffffffffffffffffffffffff16141515610b80576040517f08c379a00000000000000000000000000000000000000000000000000000000081526004018080602001828103825260358152602001807f5468697320616374696f6e2063616e206f6e6c7920626520706572666f726d6581526020017f64206279207468652073746f7265206f776e65722e000000000000000000000081525060400191505060405180910390fd5b826020815111151515610bfb576040517f08c379a00000000000000000000000000000000000000000000000000000000081526004018080602001828103825260138152602001807f537472696e6720697320746f6f2073686f72740000000000000000000000000081525060200191505060405180910390fd5b826020815111151515610c76576040517f08c379a00000000000000000000000000000000000000000000000000000000081526004018080602001828103825260138152602001807f537472696e6720697320746f6f2073686f72740000000000000000000000000081525060200191505060405180910390fd5b610c7e61160b565b60a060405190810160405280610c976004546001611420565b8152602001600081526020018581526020018781526020018681525090508060036000610cc76004546001611420565b81526020019081526020016000206000820151816000015560208201518160010155604082015181600201556060820151816003019080519060200190610d0f92919061163b565b506080820151816004019080519060200190610d2c92919061163b565b50905050610d3d6004546001611420565b60048190555080600001517fe88f4f683679120e63868ff548e4a8243a46ce6db3abb741a667bd3088c27b01826060015183608001518460400151604051808060200180602001848152602001838103835286818151815260200191508051906020019080838360005b83811015610dc2578082015181840152602081019050610da7565b50505050905090810190601f168015610def5780820380516001836020036101000a031916815260200191505b50838103825285818151815260200191508051906020019080838360005b83811015610e28578082015181840152602081019050610e0d565b50505050905090810190601f168015610e555780820380516001836020036101000a031916815260200191505b509550505050505060405180910390a2505050505050565b60028054600181600116156101000203166002900480601f016020809104026020016040519081016040528092919081815260200182805460018160011615610100020316600290048015610f035780601f10610ed857610100808354040283529160200191610f03565b820191906000526020600020905b815481529060010190602001808311610ee657829003601f168201915b505050505081565b600560009054906101000a900460ff1681565b6000809054906101000a900473ffffffffffffffffffffffffffffffffffffffff1681565b816000610f52600454836114f6565b10151515610fee576040517f08c379a00000000000000000000000000000000000000000000000000000000081526004018080602001828103825260278152602001807f54686973206974656d20646f6573206e6f7420657869737420696e207468697381526020017f2073746f72652e0000000000000000000000000000000000000000000000000081525060400191505060405180910390fd5b6000809054906101000a900473ffffffffffffffffffffffffffffffffffffffff1673ffffffffffffffffffffffffffffffffffffffff163373ffffffffffffffffffffffffffffffffffffffff161415156110d8576040517f08c379a00000000000000000000000000000000000000000000000000000000081526004018080602001828103825260358152602001807f5468697320616374696f6e2063616e206f6e6c7920626520706572666f726d6581526020017f64206279207468652073746f7265206f776e65722e000000000000000000000081525060400191505060405180910390fd5b816003600085815260200190815260200160002060010181905550827f4abd6a27243f1f72d18a5da44ac65bd0ecafaddfb62ef532dd4a5b08c3a55e6f836040518082815260200191505060405180910390a2505050565b81600061113f600454836114f6565b101515156111db576040517f08c379a00000000000000000000000000000000000000000000000000000000081526004018080602001828103825260278152602001807f54686973206974656d20646f6573206e6f7420657869737420696e207468697381526020017f2073746f72652e0000000000000000000000000000000000000000000000000081525060400191505060405180910390fd5b828260006111ff6003600085815260200190815260200160002060010154836114f6565b10151515611275576040517f08c379a00000000000000000000000000000000000000000000000000000000081526004018080602001828103825260168152602001807f4e6f7420656e6f7567682073746f636b206c6566742e0000000000000000000081525060200191505060405180910390fd5b84846112976003600084815260200190815260200160002060020154826115cd565b341015151561130e576040517f08c379a00000000000000000000000000000000000000000000000000000000081526004018080602001828103825260188152602001807f4e6f7420656e6f756768206574682070726f76696465642e000000000000000081525060200191505060405180910390fd5b61132e6003600089815260200190815260200160002060010154876114f6565b6003600089815260200190815260200160002060010181905550867f23264d7f0128773d5204a6e287fb4ff81585ca4448acc4d11a9b9247b980fc89876040518082815260200191505060405180910390a26113a06003600084815260200190815260200160002060020154826115cd565b341115611417573373ffffffffffffffffffffffffffffffffffffffff166108fc6113ea346113e56003600088815260200190815260200160002060020154866115cd565b6114f6565b9081150290604051600060405180830381858888f19350505050158015611415573d6000803e3d6000fd5b505b50505050505050565b60008082840190508381101515156114ec576040517f08c379a00000000000000000000000000000000000000000000000000000000081526004018080602001828103825260538152602001807f617661696c61626c652073746f726549442773202f20736b752773206f76657281526020017f666c6f776e2e20436f6e73696465722072657573696e6720766f6964206f722081526020017f616c7068616e756d657269632076616c7565730000000000000000000000000081525060600191505060405180910390fd5b8091505092915050565b60008282111515156115bc576040517f08c379a000000000000000000000000000000000000000000000000000000000815260040180806020018281038252604f8152602001807f4572726f722e20596f752061726520747279696e6720746f207769746864726181526020017f77206d6f72652066756e6473207468616e2061726520617661696c61626c652081526020017f696e20746865206163636f756e742e000000000000000000000000000000000081525060600191505060405180910390fd5b600082840390508091505092915050565b6000808314156115e05760009050611605565b600082840290508284828115156115f357fe5b0414151561160057600080fd5b809150505b92915050565b60a06040519081016040528060008152602001600081526020016000815260200160608152602001606081525090565b828054600181600116156101000203166002900490600052602060002090601f016020900481019282601f1061167c57805160ff19168380011785556116aa565b828001600101855582156116aa579182015b828111156116a957825182559160200191906001019061168e565b5b5090506116b791906116bb565b5090565b6116dd91905b808211156116d95760008160009055506001016116c1565b5090565b9056fea165627a7a723058202411cf0f9b51ac66753cd134febbe4c641ee7ca73ec26fd415204f9eb378968b0029",
  "source": "pragma solidity ^0.5.0;\n\nimport \"./SafeMath.sol\";\n\n/** @title Store. */\ncontract Store {\n\n  address payable public owner;\n  string public name;\n  string public description;\n  mapping (uint256 => Item) public itemsBySku;\n  uint256 public latestSku;\n  bool public stopped = false;\n\n  /* Struct Item */\n  struct Item {\n    uint sku;\n    uint stockCount;\n    uint price;\n    string name;\n    string description;\n  }\n\n  /* Events */\n  event LogNewItemAdded(string name, string description, uint256 indexed sku, uint256 price);\n  event LogStockCountUpdated(uint256 indexed sku, uint256 newStockCount);\n  event LogPurchaseMade(uint256 indexed sku, uint256 quantity);\n  event LogContractStateToggled(bool isStopped);\n\n  /** @dev Check if sender is owner. */\n  modifier isOwner() {\n    require(msg.sender == owner, \"This action can only be performed by the store owner.\");\n    _;\n  }\n\n  /** @dev Check if sku exists. */\n  modifier isSkuExists(uint256 sku) {\n    require(SafeMath.sub(latestSku, sku) >= 0, \"This item does not exist in this store.\");\n    _;\n  }\n\n  /** @dev Check if enough stock is available */\n  modifier enoughStockAvailable(uint256 sku, uint256 quantity) {\n    require(SafeMath.sub(itemsBySku[sku].stockCount, quantity) >= 0, \"Not enough stock left.\");\n    _;\n  }\n\n  /** @dev Check if enough eth is sent. */\n  modifier enoughEthSent(uint256 sku, uint256 quantity) {\n      require(msg.value >= SafeMath.mul(itemsBySku[sku].price, quantity), \"Not enough eth provided.\");\n\n      _;\n\n      if (msg.value > SafeMath.mul(itemsBySku[sku].price, quantity)) {\n        msg.sender.transfer(SafeMath.sub(msg.value, SafeMath.mul(itemsBySku[sku].price, quantity)));\n      }\n  }\n\n  /** @dev Check the string length */\n  modifier isStringLengthEnough(string memory str) {\n    require(bytes(str).length <= 32, \"String is too short\");\n    _;\n  }\n\n  /** @dev Don't execute in emergency */\n  modifier stopInEmergency {\n    if (!stopped) {\n      _;\n    }\n  }\n\n  /** @dev Execute in emergency */\n  modifier onlyInEmergency {\n    if (stopped) {\n      _;\n    }\n  }\n\n\n  /** @dev Init the Store contract.\n    * @param _owner Adress of the owner account.\n    * @param _name Name of the store.\n    * @param _description Description of the store.\n    */\n  constructor(address payable _owner, string memory _name, string memory _description)\n    public\n    isStringLengthEnough(_name)\n    isStringLengthEnough(_description)\n  {\n    owner = _owner;\n    name = _name;\n    description = _description;\n    latestSku = 0;\n  }\n\n  /** @dev Add a new item to the current store.\n    * @param _name Name of the item.\n    * @param _description Description of the item Height of the rectangle.\n    * @param _price Price of the item (wei).\n    */\n  function addNewItem(string memory _name, string memory _description, uint256 _price)\n    public\n    isOwner\n    isStringLengthEnough(_name)\n    isStringLengthEnough(_description)\n  {\n    Item memory newItem = Item({\n        sku: SafeMath.add(latestSku, 1),\n        stockCount: 0,\n        price: _price,\n        name: _name,\n        description: _description\n    });\n\n    itemsBySku[SafeMath.add(latestSku, 1)] = newItem;\n    latestSku = SafeMath.add(latestSku, 1);\n    emit LogNewItemAdded(newItem.name, newItem.description, newItem.sku, newItem.price);\n  }\n\n  /** @dev Update the stock count of an item.\n    * @param _sku Sku to identify the item.\n    * @param newStockCount New stock count for the item.\n    */\n  function updateStockCount(uint256 _sku, uint256 newStockCount)\n    public\n    isSkuExists(_sku)\n    isOwner\n  {\n    itemsBySku[_sku].stockCount = newStockCount;\n    emit LogStockCountUpdated(_sku, newStockCount);\n  }\n\n  /** @dev Buy an item.\n    * @param _sku Sku to identify the item.\n    * @param quantity Quantity to buy.\n    */\n  function buyItem(uint256 _sku, uint256 quantity)\n    public\n    payable\n    isSkuExists(_sku)\n    enoughStockAvailable(_sku, quantity)\n    enoughEthSent(_sku, quantity)\n  {\n    itemsBySku[_sku].stockCount = SafeMath.sub(itemsBySku[_sku].stockCount, quantity);\n    emit LogPurchaseMade(_sku, quantity);\n  }\n\n  /** @dev Withdraw funds. */\n  function withdraw()\n    public\n    payable\n    isOwner\n  {\n    owner.transfer(address(this).balance);\n  }\n\n  /** @dev Owner can toggle contract in case of emergency. */\n  function toggleContractActive()\n    public\n    isOwner\n  {\n      stopped = !stopped;\n      emit LogContractStateToggled(stopped);\n  }\n\n}\n",
  "sourcePath": "/home/clement/consensys/final-project-clemkn/contracts/Store.sol",
  "compiler": {
    "name": "solc",
    "version": "0.5.0+commit.1d4f565a.Emscripten.clang"
  },
  "schemaVersion": "3.0.0",
  "updatedAt": "2019-01-28T01:53:52.756Z",
  "devdoc": {
    "methods": {
      "addNewItem(string,string,uint256)": {
        "details": "Add a new item to the current store.",
        "params": {
          "_description": "Description of the item Height of the rectangle.",
          "_name": "Name of the item.",
          "_price": "Price of the item (wei)."
        }
      },
      "buyItem(uint256,uint256)": {
        "details": "Buy an item.",
        "params": {
          "_sku": "Sku to identify the item.",
          "quantity": "Quantity to buy."
        }
      },
      "constructor": {
        "details": "Init the Store contract.",
        "params": {
          "_description": "Description of the store.",
          "_name": "Name of the store.",
          "_owner": "Adress of the owner account."
        }
      },
      "toggleContractActive()": {
        "details": "Owner can toggle contract in case of emergency. "
      },
      "updateStockCount(uint256,uint256)": {
        "details": "Update the stock count of an item.",
        "params": {
          "_sku": "Sku to identify the item.",
          "newStockCount": "New stock count for the item."
        }
      },
      "withdraw()": {
        "details": "Withdraw funds. "
      }
    },
    "title": "Store. "
  },
  "userdoc": {
    "methods": {}
  }
}