{
  "contractName": "Store",
  "abi": [
    {
      "constant": true,
      "inputs": [],
      "name": "name",
      "outputs": [
        {
          "name": "",
          "type": "string"
        }
      ],
      "payable": false,
      "stateMutability": "view",
      "type": "function"
    },
    {
      "constant": true,
      "inputs": [
        {
          "name": "",
          "type": "uint256"
        }
      ],
      "name": "itemsBySku",
      "outputs": [
        {
          "name": "sku",
          "type": "uint256"
        },
        {
          "name": "stockCount",
          "type": "uint256"
        },
        {
          "name": "price",
          "type": "uint256"
        },
        {
          "name": "name",
          "type": "string"
        },
        {
          "name": "description",
          "type": "string"
        }
      ],
      "payable": false,
      "stateMutability": "view",
      "type": "function"
    },
    {
      "constant": true,
      "inputs": [],
      "name": "latestSku",
      "outputs": [
        {
          "name": "",
          "type": "uint256"
        }
      ],
      "payable": false,
      "stateMutability": "view",
      "type": "function"
    },
    {
      "constant": true,
      "inputs": [],
      "name": "description",
      "outputs": [
        {
          "name": "",
          "type": "string"
        }
      ],
      "payable": false,
      "stateMutability": "view",
      "type": "function"
    },
    {
      "constant": true,
      "inputs": [],
      "name": "owner",
      "outputs": [
        {
          "name": "",
          "type": "address"
        }
      ],
      "payable": false,
      "stateMutability": "view",
      "type": "function"
    },
    {
      "inputs": [
        {
          "name": "_owner",
          "type": "address"
        },
        {
          "name": "_name",
          "type": "string"
        },
        {
          "name": "_description",
          "type": "string"
        }
      ],
      "payable": false,
      "stateMutability": "nonpayable",
      "type": "constructor"
    },
    {
      "anonymous": false,
      "inputs": [
        {
          "indexed": false,
          "name": "name",
          "type": "string"
        },
        {
          "indexed": false,
          "name": "description",
          "type": "string"
        },
        {
          "indexed": true,
          "name": "sku",
          "type": "uint256"
        },
        {
          "indexed": false,
          "name": "price",
          "type": "uint256"
        }
      ],
      "name": "LogNewItemAdded",
      "type": "event"
    },
    {
      "anonymous": false,
      "inputs": [
        {
          "indexed": true,
          "name": "sku",
          "type": "uint256"
        },
        {
          "indexed": false,
          "name": "newStockCount",
          "type": "uint256"
        }
      ],
      "name": "LogStockCountUpdated",
      "type": "event"
    },
    {
      "anonymous": false,
      "inputs": [
        {
          "indexed": true,
          "name": "sku",
          "type": "uint256"
        },
        {
          "indexed": false,
          "name": "quantity",
          "type": "uint256"
        }
      ],
      "name": "LogPurchaseMade",
      "type": "event"
    },
    {
      "constant": false,
      "inputs": [
        {
          "name": "_name",
          "type": "string"
        },
        {
          "name": "_description",
          "type": "string"
        },
        {
          "name": "_price",
          "type": "uint256"
        }
      ],
      "name": "addNewItem",
      "outputs": [],
      "payable": false,
      "stateMutability": "nonpayable",
      "type": "function"
    },
    {
      "constant": false,
      "inputs": [
        {
          "name": "_sku",
          "type": "uint256"
        },
        {
          "name": "newStockCount",
          "type": "uint256"
        }
      ],
      "name": "updateStockCount",
      "outputs": [],
      "payable": false,
      "stateMutability": "nonpayable",
      "type": "function"
    },
    {
      "constant": false,
      "inputs": [
        {
          "name": "_sku",
          "type": "uint256"
        },
        {
          "name": "quantity",
          "type": "uint256"
        }
      ],
      "name": "buyItem",
      "outputs": [],
      "payable": true,
      "stateMutability": "payable",
      "type": "function"
    },
    {
      "constant": false,
      "inputs": [],
      "name": "withdraw",
      "outputs": [],
      "payable": true,
      "stateMutability": "payable",
      "type": "function"
    }
  ],
  "bytecode": "0x60806040523480156200001157600080fd5b506040516200167038038062001670833981018060405260608110156200003757600080fd5b810190808051906020019092919080516401000000008111156200005a57600080fd5b828101905060208101848111156200007157600080fd5b81518560018202830111640100000000821117156200008f57600080fd5b50509291906020018051640100000000811115620000ac57600080fd5b82810190506020810184811115620000c357600080fd5b8151856001820283011164010000000082111715620000e157600080fd5b5050929190505050826000806101000a81548173ffffffffffffffffffffffffffffffffffffffff021916908373ffffffffffffffffffffffffffffffffffffffff1602179055508160019080519060200190620001419291906200016c565b5080600290805190602001906200015a9291906200016c565b5060006004819055505050506200021b565b828054600181600116156101000203166002900490600052602060002090601f016020900481019282601f10620001af57805160ff1916838001178555620001e0565b82800160010185558215620001e0579182015b82811115620001df578251825591602001919060010190620001c2565b5b509050620001ef9190620001f3565b5090565b6200021891905b8082111562000214576000816000905550600101620001fa565b5090565b90565b611445806200022b6000396000f3fe608060405260043610610099576000357c0100000000000000000000000000000000000000000000000000000000900463ffffffff16806306fdde031461009e57806331a590901461012e5780633ccfd60b14610263578063561795831461026d578063637fd295146102985780637284e416146104015780638da5cb5b1461049157806394f6f06c146104e85780639979c0091461052d575b600080fd5b3480156100aa57600080fd5b506100b3610565565b6040518080602001828103825283818151815260200191508051906020019080838360005b838110156100f35780820151818401526020810190506100d8565b50505050905090810190601f1680156101205780820380516001836020036101000a031916815260200191505b509250505060405180910390f35b34801561013a57600080fd5b506101676004803603602081101561015157600080fd5b8101908080359060200190929190505050610603565b604051808681526020018581526020018481526020018060200180602001838103835285818151815260200191508051906020019080838360005b838110156101bd5780820151818401526020810190506101a2565b50505050905090810190601f1680156101ea5780820380516001836020036101000a031916815260200191505b50838103825284818151815260200191508051906020019080838360005b83811015610223578082015181840152602081019050610208565b50505050905090810190601f1680156102505780820380516001836020036101000a031916815260200191505b5097505050505050505060405180910390f35b61026b610769565b005b34801561027957600080fd5b506102826108d4565b6040518082815260200191505060405180910390f35b3480156102a457600080fd5b506103ff600480360360608110156102bb57600080fd5b81019080803590602001906401000000008111156102d857600080fd5b8201836020820111156102ea57600080fd5b8035906020019184600183028401116401000000008311171561030c57600080fd5b91908080601f016020809104026020016040519081016040528093929190818152602001838380828437600081840152601f19601f8201169050808301925050505050505091929192908035906020019064010000000081111561036f57600080fd5b82018360208201111561038157600080fd5b803590602001918460018302840111640100000000831117156103a357600080fd5b91908080601f016020809104026020016040519081016040528093929190818152602001838380828437600081840152601f19601f820116905080830192505050505050509192919290803590602001909291905050506108da565b005b34801561040d57600080fd5b50610416610bb9565b6040518080602001828103825283818151815260200191508051906020019080838360005b8381101561045657808201518184015260208101905061043b565b50505050905090810190601f1680156104835780820380516001836020036101000a031916815260200191505b509250505060405180910390f35b34801561049d57600080fd5b506104a6610c57565b604051808273ffffffffffffffffffffffffffffffffffffffff1673ffffffffffffffffffffffffffffffffffffffff16815260200191505060405180910390f35b3480156104f457600080fd5b5061052b6004803603604081101561050b57600080fd5b810190808035906020019092919080359060200190929190505050610c7c565b005b6105636004803603604081101561054357600080fd5b810190808035906020019092919080359060200190929190505050610e69565b005b60018054600181600116156101000203166002900480601f0160208091040260200160405190810160405280929190818152602001828054600181600116156101000203166002900480156105fb5780601f106105d0576101008083540402835291602001916105fb565b820191906000526020600020905b8154815290600101906020018083116105de57829003601f168201915b505050505081565b6003602052806000526040600020600091509050806000015490806001015490806002015490806003018054600181600116156101000203166002900480601f0160208091040260200160405190810160405280929190818152602001828054600181600116156101000203166002900480156106c15780601f10610696576101008083540402835291602001916106c1565b820191906000526020600020905b8154815290600101906020018083116106a457829003601f168201915b505050505090806004018054600181600116156101000203166002900480601f01602080910402602001604051908101604052809291908181526020018280546001816001161561010002031660029004801561075f5780601f106107345761010080835404028352916020019161075f565b820191906000526020600020905b81548152906001019060200180831161074257829003601f168201915b5050505050905085565b6000809054906101000a900473ffffffffffffffffffffffffffffffffffffffff1673ffffffffffffffffffffffffffffffffffffffff163373ffffffffffffffffffffffffffffffffffffffff16141515610853576040517f08c379a00000000000000000000000000000000000000000000000000000000081526004018080602001828103825260358152602001807f5468697320616374696f6e2063616e206f6e6c7920626520706572666f726d6581526020017f64206279207468652073746f7265206f776e65722e000000000000000000000081525060400191505060405180910390fd5b6000809054906101000a900473ffffffffffffffffffffffffffffffffffffffff1673ffffffffffffffffffffffffffffffffffffffff166108fc3073ffffffffffffffffffffffffffffffffffffffff16319081150290604051600060405180830381858888f193505050501580156108d1573d6000803e3d6000fd5b50565b60045481565b6000809054906101000a900473ffffffffffffffffffffffffffffffffffffffff1673ffffffffffffffffffffffffffffffffffffffff163373ffffffffffffffffffffffffffffffffffffffff161415156109c4576040517f08c379a00000000000000000000000000000000000000000000000000000000081526004018080602001828103825260358152602001807f5468697320616374696f6e2063616e206f6e6c7920626520706572666f726d6581526020017f64206279207468652073746f7265206f776e65722e000000000000000000000081525060400191505060405180910390fd5b6109cc611344565b60a0604051908101604052806109e56004546001611159565b8152602001600081526020018381526020018581526020018481525090508060036000610a156004546001611159565b81526020019081526020016000206000820151816000015560208201518160010155604082015181600201556060820151816003019080519060200190610a5d929190611374565b506080820151816004019080519060200190610a7a929190611374565b50905050610a8b6004546001611159565b60048190555080600001517fe88f4f683679120e63868ff548e4a8243a46ce6db3abb741a667bd3088c27b01826060015183608001518460400151604051808060200180602001848152602001838103835286818151815260200191508051906020019080838360005b83811015610b10578082015181840152602081019050610af5565b50505050905090810190601f168015610b3d5780820380516001836020036101000a031916815260200191505b50838103825285818151815260200191508051906020019080838360005b83811015610b76578082015181840152602081019050610b5b565b50505050905090810190601f168015610ba35780820380516001836020036101000a031916815260200191505b509550505050505060405180910390a250505050565b60028054600181600116156101000203166002900480601f016020809104026020016040519081016040528092919081815260200182805460018160011615610100020316600290048015610c4f5780601f10610c2457610100808354040283529160200191610c4f565b820191906000526020600020905b815481529060010190602001808311610c3257829003601f168201915b505050505081565b6000809054906101000a900473ffffffffffffffffffffffffffffffffffffffff1681565b816000610c8b6004548361122f565b10151515610d27576040517f08c379a00000000000000000000000000000000000000000000000000000000081526004018080602001828103825260278152602001807f54686973206974656d20646f6573206e6f7420657869737420696e207468697381526020017f2073746f72652e0000000000000000000000000000000000000000000000000081525060400191505060405180910390fd5b6000809054906101000a900473ffffffffffffffffffffffffffffffffffffffff1673ffffffffffffffffffffffffffffffffffffffff163373ffffffffffffffffffffffffffffffffffffffff16141515610e11576040517f08c379a00000000000000000000000000000000000000000000000000000000081526004018080602001828103825260358152602001807f5468697320616374696f6e2063616e206f6e6c7920626520706572666f726d6581526020017f64206279207468652073746f7265206f776e65722e000000000000000000000081525060400191505060405180910390fd5b816003600085815260200190815260200160002060010181905550827f4abd6a27243f1f72d18a5da44ac65bd0ecafaddfb62ef532dd4a5b08c3a55e6f836040518082815260200191505060405180910390a2505050565b816000610e786004548361122f565b10151515610f14576040517f08c379a00000000000000000000000000000000000000000000000000000000081526004018080602001828103825260278152602001807f54686973206974656d20646f6573206e6f7420657869737420696e207468697381526020017f2073746f72652e0000000000000000000000000000000000000000000000000081525060400191505060405180910390fd5b82826000610f3860036000858152602001908152602001600020600101548361122f565b10151515610fae576040517f08c379a000000000000000000000000000000000000000000000000000000000815260040180806020018281038252601a8152602001807f4e6f7420656e6f75676820696e76656e746f7279206c6566742e00000000000081525060200191505060405180910390fd5b8484610fd0600360008481526020019081526020016000206002015482611306565b3410151515611047576040517f08c379a000000000000000000000000000000000000000000000000000000000815260040180806020018281038252601a8152602001807f4e6f7420656e6f7567682045746865722070726f76696465642e00000000000081525060200191505060405180910390fd5b61106760036000898152602001908152602001600020600101548761122f565b6003600089815260200190815260200160002060010181905550867f23264d7f0128773d5204a6e287fb4ff81585ca4448acc4d11a9b9247b980fc89876040518082815260200191505060405180910390a26110d9600360008481526020019081526020016000206002015482611306565b341115611150573373ffffffffffffffffffffffffffffffffffffffff166108fc6111233461111e600360008881526020019081526020016000206002015486611306565b61122f565b9081150290604051600060405180830381858888f1935050505015801561114e573d6000803e3d6000fd5b505b50505050505050565b6000808284019050838110151515611225576040517f08c379a00000000000000000000000000000000000000000000000000000000081526004018080602001828103825260538152602001807f617661696c61626c652073746f726549442773202f20736b752773206f76657281526020017f666c6f776e2e20436f6e73696465722072657573696e6720766f6964206f722081526020017f616c7068616e756d657269632076616c7565730000000000000000000000000081525060600191505060405180910390fd5b8091505092915050565b60008282111515156112f5576040517f08c379a000000000000000000000000000000000000000000000000000000000815260040180806020018281038252604f8152602001807f4572726f722e20596f752061726520747279696e6720746f207769746864726181526020017f77206d6f72652066756e6473207468616e2061726520617661696c61626c652081526020017f696e20746865206163636f756e742e000000000000000000000000000000000081525060600191505060405180910390fd5b600082840390508091505092915050565b600080831415611319576000905061133e565b6000828402905082848281151561132c57fe5b0414151561133957600080fd5b809150505b92915050565b60a06040519081016040528060008152602001600081526020016000815260200160608152602001606081525090565b828054600181600116156101000203166002900490600052602060002090601f016020900481019282601f106113b557805160ff19168380011785556113e3565b828001600101855582156113e3579182015b828111156113e25782518255916020019190600101906113c7565b5b5090506113f091906113f4565b5090565b61141691905b808211156114125760008160009055506001016113fa565b5090565b9056fea165627a7a723058208e2552938b3344778d464d67fe65c62ad31e089f5e8f0ca64da868afb8eaa7400029",
  "source": "pragma solidity ^0.5.0;\n\nimport \"./SafeMath.sol\";\n\ncontract Store {\n\n  address payable public owner;\n  string public name;\n  string public description;\n  mapping (uint256 => Item) public itemsBySku;\n  uint256 public latestSku;\n\n  /* Struct */\n  struct Item {\n    uint sku;\n    uint stockCount;\n    uint price;\n    string name;\n    string description;\n  }\n\n  /* Events */\n  event LogNewItemAdded(string name, string description, uint256 indexed sku, uint256 price);\n  event LogStockCountUpdated(uint256 indexed sku, uint256 newStockCount);\n  event LogPurchaseMade(uint256 indexed sku, uint256 quantity);\n\n  /* Modifiers */\n  modifier isOwner() {\n    require(msg.sender == owner, \"This action can only be performed by the store owner.\");\n    _;\n  }\n\n  modifier isSkuExists(uint256 sku) {\n    require(SafeMath.sub(latestSku, sku) >= 0, \"This item does not exist in this store.\");\n    _;\n  }\n\n  modifier enoughStockAvailable(uint256 sku, uint256 quantity) {\n    require(SafeMath.sub(itemsBySku[sku].stockCount, quantity) >= 0, \"Not enough inventory left.\");\n    _;\n  }\n\n  modifier enoughEthSent(uint256 sku, uint256 quantity) {\n      require(msg.value >= SafeMath.mul(itemsBySku[sku].price, quantity), \"Not enough Ether provided.\");\n\n      _;\n\n      if (msg.value > SafeMath.mul(itemsBySku[sku].price, quantity)) {\n        msg.sender.transfer(SafeMath.sub(msg.value, SafeMath.mul(itemsBySku[sku].price, quantity)));\n      }\n  }\n\n  /* Constructor */\n  constructor(address payable _owner, string memory _name, string memory _description)\n    public\n  {\n    owner = _owner;\n    name = _name;\n    description = _description;\n    latestSku = 0;\n  }\n\n  function addNewItem(string memory _name, string memory _description, uint256 _price)\n    public\n    isOwner\n  {\n    Item memory newItem = Item({\n        sku: SafeMath.add(latestSku, 1),\n        stockCount: 0,\n        price: _price,\n        name: _name,\n        description: _description\n    });\n\n    itemsBySku[SafeMath.add(latestSku, 1)] = newItem;\n    latestSku = SafeMath.add(latestSku, 1);\n    emit LogNewItemAdded(newItem.name, newItem.description, newItem.sku, newItem.price);\n  }\n\n  function updateStockCount(uint256 _sku, uint256 newStockCount)\n    public\n    isSkuExists(_sku)\n    isOwner\n  {\n    itemsBySku[_sku].stockCount = newStockCount;\n    emit LogStockCountUpdated(_sku, newStockCount);\n  }\n\n  function buyItem(uint256 _sku, uint256 quantity)\n    public\n    payable\n    isSkuExists(_sku)\n    enoughStockAvailable(_sku, quantity)\n    enoughEthSent(_sku, quantity)\n  {\n    itemsBySku[_sku].stockCount = SafeMath.sub(itemsBySku[_sku].stockCount, quantity);\n    emit LogPurchaseMade(_sku, quantity);\n  }\n\n  function withdraw()\n    public\n    payable\n    isOwner\n  {\n    owner.transfer(address(this).balance);\n  }\n\n}\n",
  "sourcePath": "/home/clement/consensys/final-project-clemkn/contracts/Store.sol",
  "compiler": {
    "name": "solc",
    "version": "0.5.0+commit.1d4f565a.Emscripten.clang"
  },
  "schemaVersion": "3.0.0",
  "updatedAt": "2019-01-26T23:36:53.475Z",
  "devdoc": {
    "methods": {}
  },
  "userdoc": {
    "methods": {}
  }
}